:020000040000fa
:080000000002040000000000f2
:020000040000fa
:04000800840300006d
:020000040000fa
:04000c0078a90000cf
:020000040000fa
:04001000a4a900009f
:020000040000fa
:04001400caa9000075
:020000040000fa
:04001800f0a900004b
:020000040000fa
:04001c0016aa000020
:020000040000fa
:040020008403000055
:020000040000fa
:040024008403000051
:020000040000fa
:04002800840300004d
:020000040000fa
:04002c005872000006
:020000040000fa
:040030008403000045
:020000040000fa
:040034008e9f00009b
:020000040000fa
:0400380014a300000d
:020000040000fa
:04003c00a8720000a6
:020000040000fa
:040040008403000035
:020000040000fa
:040044008403000031
:020000040000fa
:04004800d894000048
:020000040000fa
:04004c008403000029
:020000040000fa
:0400500082850000a5
:020000040000fa
:04005400388b0000e5
:020000040000fa
:04005800fe8a00001c
:020000040000fa
:04005c008403000019
:020000040000fa
:040060008403000015
:020000040000fa
:040064008403000011
:020000040000fa
:04006800840300000d
:020000040000fa
:04006c008403000009
:020000040000fa
:040070008403000005
:020000040000fa
:040074008403000001
:020000040000fa
:0400780084030000fd
:020000040000fa
:04007c0084030000f9
:020000040000fa
:0400800038740000d0
:020000040000fa
:04008400887400007c
:020000040000fa
:0400880084030000ed
:020000040000fa
:04008c0084030000e9
:020000040000fa
:0400900084030000e5
:020000040000fa
:040094007c94000058
:020000040000fa
:040098004aa000007a
:020000040000fa
:04009c0084030000d9
:020000040000fa
:0400a000748c00005c
:020000040000fa
:0400a4003a8c000092
:020000040000fa
:0400a80084030000cd
:020000040000fa
:0400ac00e8860000e2
:020000040000fa
:0400b00084030000c5
:020000040000fa
:0400b4002c9b000081
:020000040000fa
:0400b80084030000bd
:020000040000fa
:0400bc00f8720000d6
:020000040000fa
:0400c0004873000081
:020000040000fa
:0400c400987300002d
:020000040000fa
:0400c800e8730000d9
:020000040000fa
:0400cc0084030000a9
:020000040000fa
:0400d00084030000a5
:020000040000fa
:0400d40084030000a1
:020000040000fa
:0400d800840300009d
:020000040000fa
:0400dc008403000099
:020000040000fa
:0400e0008403000095
:020000040000fa
:0400e40066a0000012
:020000040000fa
:0400e80010a0000064
:020000040000fa
:0400ec008403000089
:020000040000fa
:0400f0008675000011
:020000040000fa
:0400f400369500003d
:020000040000fa
:0400f800840300007d
:020000040000fa
:0400fc0010a7000049
:020000040000fa
:040100008403000074
:020000040000fa
:040104008403000070
:020000040000fa
:04010800c29a000097
:020000040000fa
:04010c008403000068
:020000040000fa
:040110008403000064
:020000040000fa
:040114008403000060
:020000040000fa
:04011800840300005c
:020000040000fa
:04011c008403000058
:020000040000fa
:040120008403000054
:020000040000fa
:040124008403000050
:020000040000fa
:04012800840300004c
:020000040000fa
:04012c008403000048
:020000040000fa
:040130008403000044
:020000040000fa
:040134008403000040
:020000040000fa
:04013800840300003c
:020000040000fa
:04013c008403000038
:020000040000fa
:040140008403000034
:020000040000fa
:040144008403000030
:020000040000fa
:04020800840300006b
:020000040000fa
:04020c008403000067
:020000040000fa
:040210008403000063
:020000040000fa
:04021400840300005f
:020000040000fa
:04021800840300005b
:020000040000fa
:04021c008403000057
:020000040000fa
:040220008403000053
:020000040000fa
:04022400840300004f
:020000040000fa
:04022800840300004b
:020000040000fa
:04022c008403000047
:020000040000fa
:040230008403000043
:020000040000fa
:04023400840300003f
:020000040000fa
:04023800840300003b
:020000040000fa
:04023c008403000037
:020000040000fa
:040240008403000033
:020000040000fa
:04024400840300002f
:020000040000fa
:04024800840300002b
:020000040000fa
:04024c008403000027
:020000040000fa
:040250008403000023
:020000040000fa
:04025400840300001f
:020000040000fa
:04025800840300001b
:020000040000fa
:04025c008403000017
:020000040000fa
:040260008403000013
:020000040000fa
:04026400840300000f
:020000040000fa
:04026800840300000b
:020000040000fa
:04026c008403000007
:020000040000fa
:040270008403000003
:020000040000fa
:0402740084030000ff
:020000040000fa
:0402780084030000fb
:020000040000fa
:04027c0084030000f7
:020000040000fa
:0402800084030000f3
:020000040000fa
:0402840084030000ef
:020000040000fa
:0402880084030000eb
:020000040000fa
:04028c0084030000e7
:020000040000fa
:0402900084030000e3
:020000040000fa
:0402940084030000df
:020000040000fa
:0402980084030000db
:020000040000fa
:04029c0084030000d7
:020000040000fa
:0402a00084030000d3
:020000040000fa
:0402a40084030000cf
:020000040000fa
:0402a80084030000cb
:020000040000fa
:0402ac0084030000c7
:020000040000fa
:0402b00084030000c3
:020000040000fa
:0402b40084030000bf
:020000040000fa
:0402b80084030000bb
:020000040000fa
:0402bc0084030000b7
:020000040000fa
:0402c00084030000b3
:020000040000fa
:0402c40084030000af
:020000040000fa
:0402c80084030000ab
:020000040000fa
:0402cc0084030000a7
:020000040000fa
:0402d00084030000a3
:020000040000fa
:0402d400840300009f
:020000040000fa
:0402d800840300009b
:020000040000fa
:0402dc008403000097
:020000040000fa
:0402e0008403000093
:020000040000fa
:0402e400840300008f
:020000040000fa
:0402e800840300008b
:020000040000fa
:0402ec008403000087
:020000040000fa
:0402f0008403000083
:020000040000fa
:0402f400840300007f
:020000040000fa
:0402f800840300007b
:020000040000fa
:0402fc008403000077
:020000040000fa
:040300008403000072
:020000040000fa
:04030400840300006e
:020000040000fa
:04030800840300006a
:020000040000fa
:04030c008403000066
:020000040000fa
:040310008403000062
:020000040000fa
:04031400840300005e
:020000040000fa
:04031800840300005a
:020000040000fa
:04031c008403000056
:020000040000fa
:040320008403000052
:020000040000fa
:04032400840300004e
:020000040000fa
:04032800840300004a
:020000040000fa
:04032c008403000046
:020000040000fa
:040330008403000042
:020000040000fa
:04033400840300003e
:020000040000fa
:04033800840300003a
:020000040000fa
:04033c008403000036
:020000040000fa
:040340008403000032
:020000040000fa
:04034400840300002e
:020000040000fa
:100400004f4d21000efb27000e0188000000000068
:10041000000020000000e000020032000001200087
:100420002002880014000700290407000000e000f3
:1004300003003a0000862700010020000200370078
:100440000000200001002000810f70000100320038
:1004500014000700000020000000e000020032004d
:1004600000000200000000004aae02000000000090
:100470000040da000000fe004440a900006d2000aa
:100480000000e0000300320000002000a00188000e
:100490004440a800000006008a1f78008b1f7800e7
:1004a0000000060091018800800478000000eb0045
:1004b0001a003700e284440032a0b4009905ba0063
:1004c000e284440032a0b4009906ba00e2844400f9
:1004d00032a0b4000006eb00476fde00fd07b2005b
:1004e000636ce10003003a00ebff07000000eb0043
:1004f0000a003700606ce10004003a00005deb0088
:100500008b05e900fdff3e00040037006168e10053
:10051000010032000086eb000b00070019c7ba008b
:100520001905ba000e04e00003003a000a00e000da
:10053000e0ff3a0000000600fe07b2009e018800be
:100540008a047800f5ff3700395dba008b05e900b1
:100550000c003200295dba008b05e900080032006a
:100560000c00e00003003a00e284440032a0b40032
:10057000f5ff370019ddba008b05e900faff3a00f4
:100580008904e800e184440032a0b40000000600c1
:10059000cc9d040000000000e89d04000000000065
:1005a000b89d040000000000fa9d04000000000057
:1005b000129e040000000000489e0400000000009d
:1005c0008e9e040000000000b69e040000000000a3
:1005d0003245040000000000e0a704000000000015
:1005e000d2a60400000000004a85040000000000bc
:1005f000a863040000000000106704000000000071
:10060000e0660400000000002c78040000000000f8
:100610007075040000000000b476040000000000c3
:100620009c77040000000000d07604000000000069
:10063000e6760400000000008c7704000000000053
:1006400030770400000000006c7704000000000018
:100650007877040000000000cc7704000000000060
:10066000f277040000000000207804000000000081
:10067000e67704000000000032780400000000006b
:100680009888040000000000268304000000000099
:100690002e830400000000006c83040000000000b2
:1006a000d68304000000000018840400000000004d
:1006b00056840400000000009c8404000000000038
:1006c000f4670400000000005a6804000000000005
:1006d0000868040000000000c66704000000000075
:1006e000b0680400000000002a15040000000000ab
:1006f000bc19040000000000da270400000000001c
:1007000000000400000000000040da000000fe00cd
:100710001200fa006007980071079800020f980015
:1007200000222000100798002022200020079800b7
:1007300060222000300798008022200040079800a7
:100740006e00900060004000e20f500042003e004a
:1007500050868000e20f500008003a00002320007d
:100760001007980020232000200798006023200015
:100770003007980080232000400798001e0090005a
:100780009000780000002800008060000000e00079
:1007900008003a004e0090008000eb00010878004d
:1007a0001e00900010017800010028008280700077
:1007b000010878008e089000010f78001c003700b7
:1007c000000a200050079800030037005e009000e8
:1007d0000000e900500798002e00900010007800fb
:1007e000610060000000e00003003a005e0090003d
:1007f0000000e000f5ff3a002e00900010007800a5
:10080000610060000000e0000d0032007e009000fa
:10081000be00900091007800814078000148780087
:100820007e0090000000e800700798001e0fe900ad
:100830001e0078000000e000e1ff3a0001003700f0
:10084000000000001e0078008e089000008050001c
:10085000000f980001003700000000000e08900013
:100860000080fa00000006001000fa00500798000f
:100870006107980072079800002220001007980076
:1008800020222000200798004022200030079800f6
:1008900080222000400798005e0090006000400029
:1008a000e20f50003a003e0050868000e20f5000f8
:1008b00008003a00002320001007980020232000a1
:1008c0002007980040232000300798008023200054
:1008d000400798001e00900090007800000028005b
:1008e000008060000000e00008003a004e00900028
:1008f0008000eb00010878001e00900010017800d5
:100900000100280082807000010878002e0090000d
:100910009000780000402000008060000000e000af
:1009200004003a002e0090009000780001a0a00082
:1009300001087800fe009000010f780010003700d9
:10094000000000002e0090009000780000102000b1
:10095000008060000000e000faff32006e009000ae
:10096000104078008000fb003e00900001087800f5
:100970006e0090000000e800600798001e0fe9007c
:100980001e0078000000e000edff3a000100370093
:10099000000000007e0090000080fa0000000600c9
:1009a0000a00fa0011002000b1bf9f00c0bf9f00e5
:1009b0006a805700ee1307004fb897000080fa00d6
:1009c000000006000a00fa0051002000b1bf9f009d
:1009d000c0bf9f006a805700e71307005fb8970009
:1009e0000080fa0000000600889fbe0080047800a6
:1009f000908680000000e00004003a000e0007002e
:100a00000084eb000000e0000800350098868000bc
:100a10000900e0000500320009004400060007005c
:100a20000000e00001003d000084eb0008007800b9
:100a30004f04be0000000600800078000100e000c6
:100a400003003a00400d2100908688000000050058
:100a50000080eb00424d2100828f500002003e00da
:100a6000918688000000eb00000006002200f800dc
:100a70002400f8002600f8000100b8000000e9009a
:100a80004400f800010f2000210288008200780055
:100a90003800f8003a00f8003c00f8003e00f8008a
:100aa0004000f8000080080004000000b302780055
:100ab0000500ca00b40278000500c9003200cc006d
:100ac0004000f9003e00f9003c00f9003a00f9004e
:100ad0003800f900010078004400f9002600f90010
:100ae0002400f9002200f900000006002200f800ae
:100af0002400f8002600f800889fbe008a9fbe00f0
:100b00008c9fbe004400f8000d0f20002d028800cd
:100b1000830678000106e9008205e9008180400033
:100b2000020141000000e9002400350005057800bd
:100b30003800f8003a00f8003c00f8003e00f800e9
:100b40004000f8000b800800140000000404780046
:100b50008a0478001201c3003800f8003a00f80057
:100b60003c00f8003e00f8004000f8000c8008004f
:100b70000300000038037800990378001201c600d2
:100b8000828444004000f9003e00f9003c00f90076
:100b90003a00f9003800f9003300cd000a85e8007a
:100ba0004000f9003e00f9003c00f9003a00f9006d
:100bb0003800f90001024200daff37000d0078002a
:100bc0004400f9004f06be004f05be004f04be00b2
:100bd0002600f9002400f9002200f90000000600b8
:100be0002200f8002400f8002600f8004400f80075
:100bf000050f2000250288000100b8000000e90070
:100c0000820078003800f8003a00f8003c00f80054
:100c10003e00f8004000f8000080080002000000dc
:100c2000b30278001301c0003200cd004000f9008b
:100c30003e00f9003c00f9003a00f9003800f900e4
:100c4000010078004400f9002600f9002400f900b2
:100c50002200f900000006002200f8002400f8003d
:100c60002600f8002800f8002a00f8002c00f80000
:100c70000100b8000000e9004400f800010f200066
:100c800021028800820078003800f8003a00f8005d
:100c90003c00f8003e00f8004000f800008008002a
:100ca00005000000b30278000500ca00b402780015
:100cb0000580ca000030cb003200cc004000f900b3
:100cc0003e00f9003c00f9003a00f9003800f90054
:100cd000010078004400f9002c00f9002a00f90016
:100ce0002800f9002600f9002400f9002200f9008c
:100cf00000000600820278000000e9000102e9001d
:100d0000818040003800f8003a00f8003c00f8000c
:100d10003e00f8004000f8000480080011000000c8
:100d2000030278003800f8003a00f8003c00f800b0
:100d30003e00f8004000f8000080080001000000bc
:100d400014197800010242004000f9003e00f90049
:100d50003c00f9003a00f9003800f90000000000fa
:100d60008381e800000000004000f9003e00f90027
:100d70003c00f9003a00f9003800f900050078005d
:100d8000000006002200f8002400f8002600f80009
:100d90004400f800040f20002402880001027800bb
:100da0000000e9003800f8003a00f8003c00f800c4
:100db0003e00f8004000f800008008000400000039
:100dc000b20278000500ca00b30278000500c9002d
:100dd0003100cc004000f9003e00f9003c00f90071
:100de0003a00f9003800f900040078004400f900e6
:100df0002600f9002400f9002200f9000000060096
:100e00002200f8002400f8002600f800889fbe00a9
:100e10008a1f78004400f800070f2000270288008e
:100e2000821f78008103e9000005eb003800f8001c
:100e30003a00f8003c00f8003e00f8004000f800de
:100e40000780080014000000030478008404780080
:100e50001201c3003800f8003a00f8003c00f80026
:100e60003e00f8004000f8000a8008000200000080
:100e7000b8027800290378001201c4004000f9008c
:100e80003e00f9003c00f9003a00f9003800f90092
:100e90003200cd000482e8000a05e8004000f900b5
:100ea0003e00f9003c00f9003a00f9003800f90072
:100eb0000482e9008381e80001055000210034002c
:100ec0000a05e9003800f8003a00f8003c00f80094
:100ed0003e00f8004000f8000a80080013000000ff
:100ee00003047800840478001201c3003800f8007d
:100ef0003a00f8003c00f8003e00f8004000f8001e
:100f00000780080002000000b8027800290378007a
:100f10001201c4004000f9003e00f9003c00f90055
:100f20003a00f9003800f9003200cd008381e80072
:100f30004000f9003e00f9003c00f9003a00f900d9
:100f40003800f9008703e900210035003800f80077
:100f50003a00f8003c00f8003e00f8004000f800bd
:100f6000078008001400000003047800840478005f
:100f70001201c3003800f8003a00f8003c00f80005
:100f80003e00f8004000f800078008000200000062
:100f9000b8027800290378001201c4004000f9006b
:100fa0003e00f9003c00f9003a00f9003800f90071
:100fb0003200cd008381e8008703e9004000f9009a
:100fc0003e00f9003c00f9003a00f9003800f90051
:100fd0004f0078004400f9004f0578004f04be0030
:100fe0002600f9002400f9002200f90000000600a4
:100ff0003600f800810178000000e9000080090057
:10100000b2187800030078003600f90000000600ee
:10101000840378008102e9008502d00005034200c4
:101020008102d1008502e9003800f8003a00f8009a
:101030003c00f8003e00f8004000f8000580080081
:10104000020000009602780017137800851b7800d4
:101050004000f9003e00f9003c00f9003a00f900b8
:101060003800f90000070200000000000000060040
:101070002200f8002400f8002600f8004400f800e0
:10108000040f2000240288000000e9001201c300c0
:101090003800f8003a00f8003c00f8003e00f80084
:1010a0004000f800008008000200000031027800d3
:1010b000b20278001201c0004000f9003e00f900c1
:1010c0003c00f9003a00f9003800f9000000cd00ba
:1010d0004400f9002600f9002400f9002200f9007c
:1010e00000000600b10278000009eb000002e900f0
:1010f00007003400b10178000328e10002003c0041
:1011000083027800040950000402e900f9ff3c0062
:101110000500780000000600b10278000009eb002d
:101120000002e90007003400b10178000328e10063
:101130000200350083027800040950000402e9002f
:10114000f9ff3c0005007800000006002200f800ce
:101150002400f8002600f8004400f800040f2000e6
:1011600024028800811f78000000e9003800f800a0
:101170003a00f8003c00f8003e00f8004000f8009b
:10118000008008000300000032027800b3027800fb
:101190001301c0003100cd004000f9003e00f9000d
:1011a0003c00f9003a00f9003800f9004f007800df
:1011b0004400f9002600f9002400f9002200f9009b
:1011c000000006002200f8002400f8002600f800c5
:1011d0004400f800030f20002302880081017800fa
:1011e0000000e900040028001201c3003800f800e4
:1011f0003a00f8003c00f8003e00f8004000f8001b
:101200000080080003000000b20278001201c00054
:101210003100cc001201c3004000f9003e00f9008b
:101220003c00f9003a00f9003800f90003007800aa
:101230004400f9002600f9002400f9002200f9001a
:10124000000006002200f8002400f8002600f80044
:101250004400f800020f2000220288000000e9008c
:101260001201c3003800f8003a00f8003c00f80012
:101270003e00f8004000f800008008000100000077
:10128000310278001001f0004000f9003e00f90042
:101290003c00f9003a00f9003800f9000000cd00e8
:1012a0004400f9002600f9002400f9002200f900aa
:1012b000000006002200f8002400f8002600f800d4
:1012c0004400f800040f200024028800811f7800e9
:1012d0000000e900030278003800f8003a00f80046
:1012e0003c00f8003e00f8004000f80000800800d4
:1012f00002000000b20278001301c0003100cd00ee
:101300004000f9003e00f9003c00f9003a00f90005
:101310003800f9004f0078004400f9002600f90079
:101320002400f9002200f900000006002200f80065
:101330002400f8002600f8002800f8002a00f80031
:101340002c00f8004400f800040f2000240288005c
:10135000010278000000e9003800f8003a00f800c7
:101360003c00f8003e00f8004000f8000080080053
:1013700005000000b20278000500ca00b302780040
:101380000580ca000030cb003100cc004000f900dd
:101390003e00f9003c00f9003a00f9003800f9007d
:1013a000040078004400f9002c00f9002a00f9003c
:1013b0002800f9002600f9002400f9002200f900b5
:1013c000000006003600f800020378000002d0009a
:1013d0008102e9008200780003017800f80702002a
:1013e000000000000400400001002000058009000a
:1013f00001187800060078003600f90000000600a9
:101400009540a90041e2a9008540a900000006001e
:101410009820a90061e2a9008820a9000000060028
:101420008540a900e7006000f28f2f00c808dd00aa
:1014300043058000030161006800600002817000c4
:101440004300de004205880061006000f1bf2f000c
:101450004a00dd00a20480008280600081007000ec
:10146000a1048800000006008820a900e7006000b1
:10147000f2f82f00c408dd00a3058000030161001d
:1014800068006000028170004300de00a205880051
:1014900061006000d1ff2f0000004000c204800006
:1014a0008280600081007000c10488000000060096
:1014b0001012880021128800021288000000060025
:1014c0001013880021138800021388000000060012
:1014d0000000050003f0a200889fbe008a9fbe00a6
:1014e0008c1f7800260107002d0133006450e100b5
:1014f0004f0032006420e1005200320003826c0091
:1015000007003b000905d0000306d000820f5400fd
:101510000c065d00020039000200320089017800eb
:10152000030678008582550004003d000003fd009d
:101530008103fd008502ea008b854200840f720062
:1015400002003b0060001000e08018006011b8004d
:101550000005eb007a28e1000a0039000600780057
:10156000c75ddd00f707b200878075002d003700ea
:10157000828171000a017800610560008180d100dc
:101580000080d3008502e900f9ff3b00060440001b
:101590008784480002003b0060041400e0841c00c3
:1015a0000988a300070032008a81710082817100de
:1015b000610164008904d1000884d3008b05e80030
:1015c000170037000978a30013003a000b00e00071
:1015d000130034008b05e9000804440089844c00a2
:1015e0000a4474000978a3000d003a000b00e000e3
:1015f000070034008b05e9000804440089844c008e
:1016000001003a000b0020000978a300f7ff320028
:101610000001eb0002003700828171000a017800ae
:101620009c0007000cf0a70001f0a000e5003700c7
:101630006420e10002003a00838f6c00e500330073
:101640000801be000200be00de003700889fbe0019
:101650008a9fbe008c1f7800c9000700d0003300ad
:1016600003866c006450e1002e0032006420e1002b
:10167000330032006150e1002f0032006120e100b0
:101680003100320085855500eb07b00009002000cd
:1016900008042000050037000804440089844c0039
:1016a0000a0031000603430087834b00000153000a
:1016b00081815b00f8ff33000203be000800a00038
:1016c0000804440089844c00f6ff3900c639dd0067
:1016d0008301730001003200130020008904d1004f
:1016e0000884d3000998a300050032000800a70071
:1016f0000300a0008904d1000884d3008b05e80012
:101700008904d1000884d3000001eb000281d200db
:101710006000070001f0a1000cf0a70001f0a0009c
:10172000a80037006420e100aa0032000801be00d2
:101730000200be00f7ff37006120e100a500320083
:101740006000b800f3ff37000000200001f8270018
:10175000f0ff3700839f68000100e00002003d00b9
:1017600060001000e08018000300e00002003d006f
:1017700060011100e0811900b00107004f00e00096
:1017800002003b0060001000e0801800000006002e
:101790000001be00650007000470a70003f0a1006f
:1017a0006509b100160032000d0035006828e1001f
:1017b00006003500f0ff2f00f1ff27000300e000d6
:1017c00013003b000100280000000500000040005d
:1017d000818048008502e900fcff3a0008003700dc
:1017e000f88f420002003c008000eb000000050082
:1017f0008100d1000080d3008502e800fcff3a00a0
:101800000300e00002003b0060001000e0801800d0
:10181000000006000001be00440007000470a7009d
:1018200003f0a10003f8a30013003a006509b1001a
:1018300010003200090035006928e100020035007f
:1018400001002800000005000000400081804800e1
:101850008502e900fcff3a0000000600f88f420014
:10186000050035008100d1000080d3008502e8002a
:10187000fcff3a00000006008000eb0000000500bd
:101880004f89de0082017800180337006011b8002c
:101890002603370081002000618055000b003d00c9
:1018a0000b00200061fe2f000100e1001d0034004c
:1018b00082817100610164008904d1000884d30031
:1018c0000000e800faff3a007100200061006400a7
:1018d000030070000200600009003200610444004f
:1018e000e0844c000988a500050032008b05e80063
:1018f0006808e10002003a008904d1000884d3009e
:10190000f20f20000258e10005003d00c75ddd0038
:10191000f907b20089807500080078000000060011
:101920000bf827008b00780000000500c70ade00d6
:10193000f107b200f50fb20008003200e1cf42001b
:10194000020032000170a00024000500810f700029
:10195000010032000408050044000500810f7000fa
:1019600002003a00140005008502e9000000400072
:1019700081c04800fcff3b000170a000240005006e
:101980000004be00e9ff07000003be000405be001e
:101990000200be00e5ff0700844f7500000006004e
:1019a0000200be006450e100050036006420e10042
:1019b000020036000968a30001003a000800be00da
:1019c0000160a0004f0678004f05be004f04be0026
:1019d00000000600f0ff2f00f1ff2700f9ff37009d
:1019e000889fbe008a9fbe008c1f7800e4ff07001e
:1019f000ebff330003866c006450e10024003200ea
:101a00006420e100270032006150e1002200320032
:101a10006120e100210032008b854200eb07b1001c
:101a20000134b800003ab8000804420089844a0032
:101a3000013ab8000030b8008880400009014a002f
:101a4000040033000000400081804800020149008a
:101a50008b05e900c909dd00830170000100320037
:101a600013002000c814de004814dd004709de0022
:101a70001200b200c808de000884700085ff07006d
:101a800001f0a1000cf0a70001f0a000cdff37008d
:101a90006120e100cfff32000801be000200be005d
:101aa000f7ff37006150e100fcff3a00c9ff370043
:101ab0000c00fa00889fbe008a9fbe008c9fbe006b
:101ac000afff07000206be00840578000200be00da
:101ad000020020005a02070005003a008b02b30002
:101ae000120020005602070001003a00f8856d0040
:101af0000c01be00c60007000800be009b003200bb
:101b00000b08a3009e003a000df0a7000be0a00018
:101b100009f0a7000bf0a00009f0a1000801be0029
:101b2000bb0007000bf0a6009500320001003c004e
:101b30000bd0a0008acf7500b20033006000b8005f
:101b40006250e10099003900a1003e000b28a3007b
:101b5000a2003a000bf8a300060032000b58a300c5
:101b6000a70032000801be00a90007000800be005f
:101b7000940032000800be00c20107000004be004d
:101b8000050578000bf0a7000b30a6000bf0a100b4
:101b90005b079800324f200053f323004f020700e9
:101ba00005003d000800be00120020008e02070064
:101bb0000004be000a05e9004a0798006150b90018
:101bc0002fff0700008fbe000c01be0084ff07003e
:101bd000effe0700300798000100e00002003d0022
:101be00060001000e0801800f2ff2700820f500014
:101bf000e08f580064003e000c00be00e4fe0700c9
:101c000020079800f2072000820f5000e08f580054
:101c100005003c0012f82f00f3ff2f00820f500048
:101c2000838f580009003d000a00e00003003200e5
:101c300001003c000201ea00020578006000b800e3
:101c4000200798003a079800190037003e009000de
:101c50006100b9000aff0700809fbe000c00be00b3
:101c60004109dd004811de007208b100f4010700ef
:101c70000005be001e01be0059ff07004f01be0057
:101c800014fe0700809fbe000c00be000a01be00cb
:101c900010fe07001e01be0051ff07004f01be00ed
:101ca0000dfe07008221270013f323004cff0700dd
:101cb0000005be002e0090006100b900f0fe070094
:101cc00001f0a2000c01be0003fe07000006be00ea
:101cd0000800be00660207000c01be0040ff0700be
:101ce0000a01be00fcfd0700809fbe004a000700fd
:101cf0002e0590000af0a7000a05ea00050037004b
:101d00000800be000801be0035ff07000004be0049
:101d10000c00be000801be000a00a70030ff07004b
:101d20000006be000a05d100f5ff3a005e019000f2
:101d300002e0a600030037000001be0036000700e5
:101d400042fe07000004be004f00be005a0107001b
:101d50000801be0022ff07003e019000220207009a
:101d6000de0590000bf0a70001f0a2004f06be00b8
:101d70004f05be004f04be000080fa0000000600c0
:101d800025000700f9ff3700270007006000b800b2
:101d90000bd0a7000bc0a0000be0a7000bc0a20057
:101da0000bc0a70001f82700f0ff37000df8a300d3
:101db000020032001e000700190007000bf8a30004
:101dc000eaff32000b30a70001f0a200e7ff370066
:101dd0000df8a300f9ff3a00f7ff37000801be0035
:101de0000b000700e6ff320001003c000df0a200ee
:101df0006000b8000df0a70009000700dbff370006
:101e00000b000700f1ff2700f0ff2f00d7ff37007e
:101e100001000700b101370001f8230000000500b0
:101e200001f8270000000500200220000100370013
:101e300010022000c0568800000006006022b80092
:101e4000060220000000d0008180d2000482d2006f
:101e50008582d2000000a0000202520083825a0054
:101e6000030031000202420083824a000000a10008
:101e70000603e900f3ff3a0000000600889fbe0059
:101e80008a9fbe0030044200b0844a0030054b00f7
:101e900090854b006000b1000898be000a90be001b
:101ea0000440e10005c8e10006d0e10007d8e100e8
:101eb00002003100680040001008e8004f05be0035
:101ec0004f04be0000000600889fbe008a9fbe002f
:101ed0003004be002005be000418540005985c00c4
:101ee00006185d0007985d00110020000440e10025
:101ef00005c8e10006d0e10007d8e1000100390083
:101f00008000eb00108810004f05be004f04be009b
:101f1000000006001200fa00889fbe008a9fbe00e3
:101f20008c9fbe00e0b79f00f1b79f0082bf9f006b
:101f300093bf9f000605be000404be000000eb0036
:101f4000d0b79f00c0b79f00b0b79f00a0b79f0059
:101f500090b79f000006eb005fb19700cfb09700ed
:101f6000820141003fb097000200e00004003d0004
:101f7000370007007e805700c0ff070003003700ce
:101f8000330007007e805700cfff0700dfb69700c1
:101f90000d00e0000c0035006fb29700ffb2970013
:101fa0000fbb97009fbb970010002000010020008e
:101fb0006011b80000027200818272000203730097
:101fc000838373001b0007000c06e8000104200057
:101fd000810f5600e0ff3a000d00e00004003d00d4
:101fe0000802be000a03be007e805700a3ff070060
:101ff0005fa897000000e00005003a001fb29700bc
:10200000afb297003fb39700cfb397000900070026
:102010006fb09700ffb097000fb997009fb9970076
:102020004f06be004f05be004f04be000080fa0000
:10203000000006000100070000000600a4b79f0092
:10204000b5b79f00c6b79f00d7b79f000000060036
:102050004f09de0082817100b3b79f004f01de009f
:102060008180400082807000a1b79f008fb09700f0
:102070004f09de00000040000200700090b79f0092
:102080007fa897004f01de008180400082807000b1
:1020900081b79f000d0007004f3ade0000004000ae
:1020a00004007000f0af9f00080007000402420027
:1020b00085824a0006034b0087834b00dfff070041
:1020c0000802be000a03be00000006002fb29700ff
:1020d000bfb297004fb39700dfb397000000060030
:1020e000881f780018002000881f780089ff0700eb
:1020f0008f87e9004f04780000000600801feb0086
:1021000084ff07008f87e90000000600889fbe005b
:102110008a9fbe00e00f5000e08f5800e00f59008a
:10212000e08f59000c003d006044b8006055b800d5
:102130000000540081805c0002015d0083815d002d
:10214000180020001500070008003d0018000700d7
:102150000004eb00050037000004eb000f0007004f
:1021600002003d001200070018002000dcff0700fd
:102170000800e000060032006022b8006033b800ba
:102180000000520081805a0002015b0083815b00e5
:102190004f05be004f04be0000000600e00f5200d5
:1021a000e08f5a00e00f5b00e08f5b00000006004c
:1021b0006044b8006055b8000402540085825c0099
:1021c00006035d0087835d0000000600889fbe0057
:1021d0008a9fbe008c1f7800e00f5000e08f5800ef
:1021e000e00f5900e08f59000d003d006044b80039
:1021f0006055b8000000540081805c0002015d0061
:1022000083815d001c0020000820e10009a8e10096
:102210000ab0e1000bb8e1000d003d0008003700f6
:102220000006eb00e00f5200e08f5a00e00f5b0069
:10223000e08f5b0006003d006044b8006055b800c8
:102240000402540085825c0006035d0087835d0004
:10225000aaff07000c00e000060032006022b80070
:102260006033b8000000520081805a0002015b0018
:1022700083815b004f0678004f05be004f04be000f
:10228000000006000003be00a8fd07006220e10078
:10229000020032000600be0005000500e507b1009f
:1022a000f107b20004f023008480700007f0a7005b
:1022b00001f0a00024000500889fbe008a9fbe0098
:1022c0008c9fbe000004be0098fd07000800be0001
:1022d0006420e10048003e005500320072212700d2
:1022e000132b24007f00070047003c000800be00bd
:1022f000c2ec2800e32c2c007800070047003500d2
:102300000800be0001f0a1000200200003382300f5
:1023100072000700430035000800be00b2a32a0087
:1023200083fb2300aefd07000200200003f0230022
:1023300001f0a70003f0a00067fc070014fd0700f0
:102340000005be004efd070001f0a2000006be0021
:102350000200280013f32300a1fd07000801be00be
:102360005dfc0700809fbe000c00be003208280004
:10237000e3952b009afd07004f01be0056fc0700b5
:102380000006be000001be0095fd0700809fbe0054
:102390004241250083b8230091fd07000200200080
:1023a00003e823004cfc07000c01be008cfd070075
:1023b0000006be004f00be00f2f92b00c3d423007c
:1023c00087fd07000200200003f0230042fc070005
:1023d0000c01be003ffc07000001be000c00be0067
:1023e0009afc07000200200003f023003afc0700db
:1023f000610145007c0007004f06be004f05be008e
:102400004f04be000000060001f827000000200075
:1024100022022000c2568800f7ff37006000b80093
:10242000fbff370001f8230000002000f2ff370017
:1024300009f8a300f0ff32006000b800eeff37009b
:10244000889fbe008a9fbe000003be0037fd0700c4
:102450008505780082815200020020006220e100a0
:1024600004003a00f307b100040035007718e100da
:10247000040035000600be00140037006000b800fc
:102480000f003700f50f2000faff2f008502d10062
:102490000a85d3008301e900fcff3b0081846200d0
:1024a00000046500890f7400f2ff32008582ea00a3
:1024b0000a85ea008184620000046500f5fc0700db
:1024c00007f0a70001f0a0000081eb000200e0008f
:1024d0004f05be004f04be0000000600140020009f
:1024e000ba003700f4ff2f00b8003700881f7800cb
:1024f000030478000300e00007003d0060001000c6
:10250000e080180060011900e081190002003b0022
:1025100001f02d00030037000400070008f0a700b9
:1025200001f0a0004f04780000000600889fbe0064
:102530008a9fbe0000827000040271000482710054
:10254000260032000004be000200be006011b80088
:102550006b092000950220000182cf000a0039009b
:102560000541b1000082cf00070039000541b100ec
:102570000982cf00040039000541b1000882cf0074
:10258000010039000541b10005425200120032003d
:102590000a003b0082817100610164008100d1006a
:1025a0000080d3008984d3000884d3008b05e80021
:1025b0000442e800f7ff3a0007003700080444002f
:1025c00089844c0000004800818048008b05e900a8
:1025d0000442e900f9ff3a00aefc07004f05be00d7
:1025e0004f04be00000006000003be00cffc070041
:1025f0006220e100020032000600be00000006007a
:1026000085024100e30f20000328e10005003c00a3
:10261000a3fe2f000328e10007003d000500200075
:1026200001003700f50f200020022000c05688006e
:102630006000b800080037001300200083815200ba
:1026400005003d008100d1000080d3008301e80037
:10265000fcff3a0005002000c72add00f107b200a8
:102660008580700007f0a70001f0a00000000600c0
:10267000889fbe008a9fbe008c9fbe0001ff07009e
:10268000850478000005be006420e10049003e009a
:102690006220e10003003200090035000bf8a300be
:1026a000440032000bf8a3000800320010022000a2
:1026b000c0568800f0ff2f00f1ff27003d003700d3
:1026c00001f82f00000020003a0037003d0007000d
:1026d00080fb07000006be000a00be00324f20004b
:1026e00053f323007fff0700060034000c00be00f8
:1026f0003400070077fb07000006be000a00be009a
:10270000020037008904e9000c00be002d0007001c
:10271000b3fc07002b0007006ffb07000001be00a1
:102720000c00be00c9fb07000005be000001be0092
:10273000abfc07000006be00a2f32300430d2c00f3
:1027400065fb0700809fbe000c00be00d2e327009f
:10275000d3f02b00a2fc07004f01be00bbfb07001b
:102760000006be000a01be009dfc07000a01be0073
:1027700059fb07000006be006148b90040fc070095
:102780000005be0032082800e3952b0094fc0700ea
:102790000c01be0050fb07000006be000a00be0090
:1027a0000200280013f323008dfc07000c01be007b
:1027b00049fb07004f06be004f05be004f04be0098
:1027c0000000060003f0230002000500889fbe0001
:1027d0008a9fbe00841f780069fc07004f007800c4
:1027e00011003300f0ff2f00838f6c0006003b00c8
:1027f000040565000a00a7000800370009f0a600dc
:102800001000200008003700820f5400838f5c0006
:10281000030039001000200001003e0000002000ed
:1028200009f0a7000000ea004f05be004f04be00fb
:102830000000e000000006000400fa00881f780095
:10284000010178000091b90002007800d2bf9f001a
:10285000e3bf9f003e000700000478005fb99700c7
:102860000800e000030032008000eb000800780060
:1028700061000700080078004f0478000080fa002b
:1028800000000600889fbe000004780031868000aa
:102890000100e00002003200010078000d00370066
:1028a00041868000800c210004003700910f540005
:1028b000250036000180e800910090000100e00052
:1028c000faff3a0010003700920f54001e00360045
:1028d0000280e800100178000200e000faff3a00f0
:1028e0001101780041868000800c2100040037002f
:1028f000910f5400140036000180e8009100900010
:10290000828f5000faff3a0069868000888f540059
:1029100001003100880478000900780043000700b6
:102920000000e00004003a00888f540005003200e7
:102930008904d100f5ff3700091878005e0407000c
:10294000d2ff37000000eb004f04be00000006007d
:10295000881f7800630440000800a1008000eb009d
:10296000800f540021003600e30f540001003e00a8
:102970004800200008007800c2ff07008000eb003c
:102980000000e0001900320090007800910178000a
:1029900064815100880f5100030031001101900043
:1029a000020878000700370008814000020878001c
:1029b0009101900013019800100178001109140092
:1029c00088087800100178000000eb000200e000a9
:1029d00004003200920190000300e0000100320088
:1029e0000280e800308688008180e80001007800dd
:1029f0004f047800000006008001780002003700d4
:102a0000815978000201e9000200e000fcff3a0071
:102a10000000060080007800010178003104e00029
:102a2000fdff3a0000005100000006008000780021
:102a30000000eb000100e000050034000100780018
:102a4000e9f70700e10f400001003a000000eb0049
:102a500000000600889fbe00000478001800900067
:102a600082047800808f54000100360080047800d2
:102a700018007800090178009f040700188c4400b2
:102a8000180090008904500019049800080078008c
:102a90004f04be00000006000400fa000100e00040
:102aa00003003a000f80e900e0bf9f0002003700fa
:102ab000e0bf9f008100e900f1bf9f00e480570064
:102ac000a052210004000700efb897008048eb00f7
:102ad0000080fa00000006006200fa00889fbe0035
:102ae0008a1f7800000578008104780002047800cd
:102af0008300780080f92f000f0040001c020700bf
:102b00009a979f00a9979f000000eb00b09f9f003d
:102b10001885fb008a04fb000a05ea004f55de0019
:102b200050022000808f54000d003200e10f55004c
:102b30000b003a000a017800880078002f90970077
:102b40009f91970003000100a0979f000000e00004
:102b50008e0032003f9897000000e800b09f9f0071
:102b60000a04440050022000808f54000400320008
:102b70000900e000e6ff3a003f9897008400370024
:102b80000000eb00909f9f00809f9f00f0979f00a8
:102b9000e0979f00d0979f00c0979f0007003700e5
:102ba00021012100010050000000400061002100cf
:102bb00061007800df98970001007000d09f9f00af
:102bc0008804780009047800384578008a00fb0002
:102bd00020012100d70107000000e000f0ff3a00cb
:102be000a1c2b300814f55000e003a00cf88970074
:102bf0000180e900c08f9f0010007800c09f9f00f7
:102c00000000e00005003d000000ea00c09f9f00ba
:102c10005f9897000020a000d09f9f000904e80063
:102c20000f003700c09f9f000000eb000500370039
:102c3000f2ff2700820f5000020032006a01b90043
:102c4000028040000904780088047800b900fb0085
:102c50000103b100e98f5000f5ff3600c09f9f00cf
:102c6000e0c2b300984f1000020032000080eb0079
:102c700019003700a0c2b300d84f100007003a0077
:102c8000cf8897000180e900c08f9f001000780076
:102c9000a09f9f000804e800100037000000eb0030
:102ca000a09f9f008800780005003700f3ff2700f1
:102cb000830f5000020032006a02b9000400410094
:102cc00001047800880078003101fb000203b100a4
:102cd000e90f5100f5ff3600a09f9f00984478004f
:102ce0008900fb00e0ff2000920107000000e000e7
:102cf000020032000804e800010037008044eb00c5
:102d0000c97f9f0080c6b30080cf540004003a0002
:102d100098cf14000a003a006640500006003700c1
:102d2000c0c6b30080cf540005003a0098cf14000d
:102d300003003a0065404000c07f9f000804e8009f
:102d4000e3fb2f008f8141001841780081f92f00ab
:102d50008f804000a0f92f000f00400010000700f6
:102d60000000e00009003a00e1fb2f008f804000e6
:102d7000a0f92f000f0040007f0707000000e000cf
:102d8000020035000804e80061ff37000080eb0016
:102d90004f0578004f04be000080fa0000000600d6
:102da000889fbe008a1f7800000478008244780063
:102db0000305780070c6b30080cf540021003c00aa
:102dc00000c0e90080cf5400cd003d0072405000ab
:102dd00080cf5400340132000d003c006c405000a4
:102de00080cf540047013c0000c0e90080cf540070
:102df000c3003d0050c2b30080cf54003e013200fa
:102e00007c40400080cf54003e013a00bc003700b7
:102e100010c6b30080cf5400b900320004003c005b
:102e20006940500080cf540036013a0066003700f8
:102e300030c6b30080cf5400180032000040e800d4
:102e40000900370000c7b30080cf540008013200ea
:102e500008003c0000c0e90080cf5400d1003200df
:102e600059003c006540500080cf540025013a00d5
:102e70000f00370050c7b30080cf5400520032001b
:102e80006340400080cf54004f0032006540500046
:102e900080cf54001b013a00030137001181e90083
:102ea0008208780078009000127578001b013700c6
:102eb00028609000c2c6b300824f500007003a005d
:102ec0001101780064005100800878001000be00f5
:102ed0004f89de00820178001100370012c7b3006d
:102ee000824f500003003200a2c6b300824f500050
:102ef00006003a001101780068005100800878004f
:102f00005001be004000be00050037001180e900fe
:102f10008008780010007800cf80de006109b900d9
:102f2000009cbe000294be002862900085c6b300db
:102f3000854f52000d00320025c6b300854f520068
:102f400004003a000000fb00cf80de006109b900f8
:102f50000800370045c7b300854f52000300320018
:102f6000e6c24200854f520004003a00cf80de00e6
:102f70006109b900009cbe000294be003802be0088
:102f80002803be0078009000d1c2b300e00f5200c9
:102f9000e08f5a00e00f5b00e08f5b000800350017
:102fa000881090000118a30002003200b1c2b300e3
:102fb000030037000108a3004c00320001c2b30037
:102fc000017578004700370028609000c2c6b30042
:102fd000824f500006003a00110178006400510051
:102fe000800878001000be006011b80011003700a2
:102ff00012c7b300824f500003003200a2c6b300d4
:10300000824f500006003a0011017800680051001c
:10301000800878005001be004000be000500370067
:103020001180e90080087800100078008000eb0033
:103030006011b800009cbe000294be00286290009f
:1030400085c6b300854f52000d00320025c6b3007f
:10305000854f520004003a000080fb008000eb0026
:103060006011b8000800370045c7b300854f520013
:1030700003003200e6c24200854f520004003a00cd
:103080008000eb006011b800009cbe000294be00fe
:10309000081090000038a300140032003800be0071
:1030a0002801be00e00f5000e08f5800e00f5900eb
:1030b000e08f59000d00320080c7b30080cf54006c
:1030c0000300320080c5b30080cf540007003a00ef
:1030d0007800900001c3b300017578000000e8009b
:1030e000097578000000e8007004980078009000ee
:1030f000000545006a0498008940780067003700a1
:1031000028619000c0c4b300804f510006003a000f
:103110001101780068005100800878005001be005d
:103120004000be0005003700110178006400510026
:10313000800878001000be00ba0a0700009cbe009c
:103140000294be00b8009000780090000100e000fa
:1031500002003d00d1c2b300080037008810900083
:103160000118a30002003200b1c2b300030037000f
:103170000108a3000400320001c2b3000175780009
:103180000000e800700498007800900000054500f9
:103190006a0498008940780008007800240307003a
:1031a0006000370028619000c3c6b3001180e900b9
:1031b000834f5100220032000a003c00e4c151005c
:1031c000834f51002500320083c1e800834f510036
:1031d00013003200e8c15100834f51001e003a0035
:1031e0000a00370043c7b300834f51001b00320071
:1031f000e6c14100834f510018003200e9c151007f
:10320000834f510014003a00050037008008780011
:1032100010007800485c90000848780041003700b2
:103220008008780010007800680a9000cfa2de00c5
:10323000612bb9000498be000690be00390037002b
:10324000800878001000780068099000cf91de00b7
:103250000288be00330037001180e9008008780042
:1032600010007800680c9000080878002d003700e6
:103270001180e9008008780010007800cf80de001f
:103280006109b900009cbe000294be007800900065
:10329000000545006a04980081c7b3000800780063
:1032a000060507001f0037001180e900800878003c
:1032b000100578006a049800d80c90000900e0001e
:1032c00004003d000a007800d2fd07008004780069
:1032d00007003700090178008000eb000a00780041
:1032e0007b0207000000e000010032008a04500069
:1032f000190c98000b0037007800900009757800d1
:103300000600370078009000000545000904e00041
:1033100001003a0059c2b300094d78000000e800ee
:10332000700498000000eb004f0578004f04be00c9
:10333000000006000001eb00030037000201e80076
:103340000404e000070032006103b8006112b80015
:103350008601420066427a00814f5200f7ff3a0030
:10336000010037008001eb00030078000000060038
:103370000108780000000600889fbe000004780065
:103380000100780082047800880178000901780043
:1033900011002000fa010700890f500001003200df
:1033a0000004eb00080078004f04be000000060097
:1033b0000000fa00e88157004fb9970061d2200061
:1033c000c09b2100020007000080fa0000000600f8
:1033d0006200fa00889fbe008a1f7800000578000e
:1033e00081047800020478008300780080f92f00bf
:1033f0000f004000deff07009a979f00a9979f00eb
:103400000000eb00b09f9f001885fb008a04fb00c2
:103410000a05ea004f55de0050022000808f54005c
:103420000d003200e10f55000b003a000a01780050
:10343000880078002f9097009f919700030001006b
:10344000a0979f000000e0008e0032003f98970098
:103450000000e800b09f9f000a04440050022000d2
:10346000808f5400040032000900e000e6ff3a00bb
:103470003f989700840037000000eb00909f9f006a
:10348000809f9f00f0979f00e0979f00d0979f003c
:10349000c0979f0007003700c102210001005000c3
:1034a000000040000102210061007800df989700d1
:1034b00001007000d09f9f00880478000904780004
:1034c000384578008a00fb00c002210099ff070000
:1034d0000000e000f0ff3a00a1c2b300814f5500a8
:1034e0000e003a00cf8897000180e900c08f9f004e
:1034f00010007800c09f9f000000e00005003d0024
:103500000000ea00c09f9f005f9897000020a00085
:10351000d09f9f000904e8000f003700c09f9f0064
:103520000000eb0005003700f2ff2700820f50007b
:10353000020032006a01b9000280400009047800ec
:1035400088047800b900fb000103b100e98f500046
:10355000f5ff3600c09f9f00e0c2b300984f1000f7
:10356000020032000080eb0019003700a0c2b30057
:10357000d84f100007003a00cf8897000180e9007b
:10358000c08f9f0010007800a09f9f000804e800f3
:10359000100037000000eb00a09f9f00880078001b
:1035a00005003700f3ff2700830f500002003200b0
:1035b0006a02b90004004100010478008800780024
:1035c0003101fb000203b100e90f5100f5ff3600a5
:1035d000a09f9f00984478008900fb008001210093
:1035e00054ff07000000e000020032000804e80079
:1035f000010037008044eb00c97f9f0080c6b30004
:1036000080cf540004003a0098cf14000a003a001a
:103610006640500006003700c0c6b30080cf54009b
:1036200005003a0098cf140003003a0065404000be
:10363000c07f9f000804e8001801fb00e3fb2f0097
:103640008f81410081f92f008f804000a0f92f0069
:103650000f004000100007000000e00009003a00e1
:10366000e1fb2f008f804000a0f92f000f004000e9
:10367000410507000000e000020035000804e800f2
:1036800061ff37000080eb004f0578004f04be005b
:103690000080fa0000000600881f7800e4c6b3002e
:1036a000844f5100b600320010003c006b425200c3
:1036b000844f51001800320005003c0054c2b30092
:1036c000844f5100ee00320084c5b3000f00370074
:1036d00044c6b300844f51001400320065424200da
:1036e000844f5100e9003a001000370004c7b300ce
:1036f000844f5100d500320053003500654242002e
:10370000844f51005000320063424200844f510008
:10371000de003a004c0037001181e9008208780091
:10372000f000900012417800d6003700206290002f
:10373000c5c6b300854f520007003a0091027800d9
:1037400064825200840878001402be004fabde0091
:10375000860378001100370015c7b300854f52006b
:1037600003003200a5c6b300854f520006003a00a0
:103770009102780068825200840878005403be00e9
:103780004402be00050037001182e9008408780079
:1037900014027800cfa2de00612bb9000498be00ad
:1037a0000690be00a060900088c6b30088cf50008d
:1037b0000d00320028c6b30088cf500004003a0044
:1037c0000402fb00cfa2de00612bb9000800370025
:1037d00048c7b30088cf500003003200664444005d
:1037e00088cf500004003a00cfa2de00612bb90060
:1037f0000498be000690be003002be002003be004a
:10380000f0009000e00f5200e08f5a00e00f5b00e4
:10381000e08f5b0002003d00d4c2b3000800370017
:10382000001290000418a30002003200b4c2b300da
:10383000030037000408a3004c00320004c2b300a8
:1038400084f178004700370020629000c5c6b300bd
:10385000854f520006003a009102780064825200bf
:10386000840878001402be006033b80011003700ed
:1038700015c7b300854f520003003200a5c6b30040
:10388000854f520006003a0091027800688252008b
:10389000840878005403be004402be0005003700cf
:1038a0001182e90084087800140278008002eb009d
:1038b0006033b8000498be000690be00a06090007f
:1038c00088c6b30088cf50000d00320028c6b30070
:1038d00088cf500004003a000482fb008002eb0015
:1038e0006033b8000800370048c7b30088cf5000e5
:1038f000030032006644440088cf500004003a00c0
:103900008002eb006033b8000498be000690be0051
:10391000801090000138a300140032003002be0075
:103920002003be00e00f5200e08f5a00e00f5b0062
:10393000e08f5b000d00320081c7b300814f510062
:103940000300320081c5b300814f510007003a00e7
:10395000f000900004c3b30084f178008100e80017
:1039600082f178008100e80071009800f00090007a
:103970008181410063009800824078003e0037005a
:10398000a0619000c4c6b3001181e90084cf51004a
:10399000220032000a003c006442520084cf5100f1
:1039a0002500320004c2e80084cf51001300320029
:1039b0006842520084cf51001e003a000a003700ce
:1039c00044c7b30084cf51001b003200664242005e
:1039d00084cf5100180032006942520084cf510058
:1039e00014003a0005003700820878009200780041
:1039f00040589000804878002c00370082087800fa
:103a000092007800600a9000cfa2de00612bb9001e
:103a10008498be008690be0024003700820878009b
:103a20009200780060099000cf91de008288be008d
:103a30001e0037001181e9008208780092007800aa
:103a40006008900080087800180037001181e900b4
:103a50008208780012027800cfa2de00612bb90044
:103a60000498be000690be00f000900081814100e5
:103a70006300980081c7b300100307000b003700f4
:103a8000f000900082f1780006003700f00090000e
:103a9000818141000204e00001003a0052c2b300fb
:103aa000824978008100e800710098000000eb0076
:103ab0004f047800000006000000e0002f003200f4
:103ac000c0017800e38f51002c0036000308a300ea
:103ad0002a003a00418680000100e0000200320026
:103ae000810f5000040031001100980040868800ca
:103af0001600370082007800110190000200e000fb
:103b000002003200800f5100faff390011027800e4
:103b100084824000850f500018003900808f5200c9
:103b200003003a00830842000100780007003700d4
:103b30000200e0000300320083014000830f5100c7
:103b40000e0039001200980090009800900090003c
:103b50000100e0000900320010014000828f500097
:103b600006003a00620c21000009eb001001780009
:103b7000110841009100900011009800000006001b
:103b8000889fbe008a9fbe008c9fbe008e1f78005b
:103b900000067800010478000200780083047800b1
:103ba0000881b900020778000200e00042003200fc
:103bb0000800e0004100320082057800c900900052
:103bc00069009000808f50000400390009007800df
:103bd000500007000000e0002900350000402000f0
:103be000190060000a0032000b017800a1002000db
:103bf0000c00780036000700800678000d00e00019
:103c000006003200610516000a85460004003700f0
:103c10000b0578008006eb00010037000b057800eb
:103c200049009000e9009000808050008a8f500089
:103c300002003100010578008006eb000a017800df
:103c40008c0078002c0007008a8555004900900000
:103c50000a004000c00498000d00e000040032009b
:103c600009007800e30407000000e00004003a00c7
:103c70000b00e000020032000a064600cfff3700ca
:103c80000080200019006000020032000900780066
:103c9000d804070000c020001900600002003200b4
:103ca00049009000e00498008b05570011000900be
:103cb0008885d800010037000000eb004f0778002e
:103cc0004f06be004f05be004f04be0000000600b8
:103cd00003003700b0cf1000050032000201e900f8
:103ce000800178000200e000faff3a0000000500c1
:103cf0000300780000000600800178000200370011
:103d0000b15978000201e9000200e000fcff3a002e
:103d100000000600889fbe008a1f7800000478001b
:103d2000c8009000680190000000eb00828f5000f6
:103d30003c003900180078002200290002016000d0
:103d4000e20f510007003200012024000000e000d3
:103d500001003d0001202000008c70000080eb007d
:103d6000300037000200260002006000820f500081
:103d700009003a0038009000808f5000060039009a
:103d8000080078009b040700800078000080eb00aa
:103d90000100e00023003a001805780000c0200070
:103da0000000650018003a00a8049000600220009e
:103db00008004000808f540013003a0000202000cb
:103dc000e3fa0700200498000000e00005003a0034
:103dd00029049800490498008904e80039049800ef
:103de000080037000a60a0000a0c78004004980020
:103df000012020008080400031049800400c980091
:103e0000500c98001a0407002800900050049800f5
:103e1000380090006004980000002600180c700024
:103e20000000eb004f0578004f04be0000000600c4
:103e3000cf04b000889fbe008a9fbe008c9fbe004a
:103e40008e1f780000067800814678003c00be0096
:103e50002c01be00d0979f00e1979f00f2979f0032
:103e6000839f9f0010c6b30080cf5600120032001f
:103e700010c4b30080cf56000f0032005c089000e1
:103e80000000e00002003d00600020000900370053
:103e90000000e00008003a0070c6b30080cf560072
:103ea0000300320070c4b30080cf560002003a0015
:103eb00010002000500e98008c00780080fa2f002f
:103ec0000f004000d3010700e20f50000f003a003e
:103ed00030002000100e980060d8200011c6b300fa
:103ee00081cf560019003200e4c0400081cf560057
:103ef00016003200a0d820008140e80081cf560093
:103f000012003a0060d82000100037000000e000e6
:103f10001400340030002000100e9800e0d820007b
:103f200011c6b30081cf560008003200e4c0400043
:103f300081cf56000500320020d920008140e800e2
:103f400081cf560001003a00e0d82000ec0090003c
:103f5000b0487800b0687800104078009040980031
:103f6000a601370011c6b30081cf5600030032000e
:103f700011c4b30081cf56000e003a00ec0090004f
:103f800002c3b300825878006106980082c5b3006e
:103f900013c6b30083cf560001003a0082c7b300b6
:103fa0008258780061069800fc0090008180e8004b
:103fb000710698000000e00005003a00c0979f00dd
:103fc0008001eb0022fb2f000f0141008701370029
:103fd00010c6b30080cf56000600320010c4b300f4
:103fe00080cf56009a003a0071da2000d1b79f00c6
:103ff0000200370062d92000d2b79f005c08900011
:104000001b0220000000e000010035008005e800f0
:104010000b05e8006022b8006033b8005f9097009d
:10402000ef9097007f9197008f99970054060700b3
:10403000000278003c00be002c01be000400e0003d
:1040400001003d0003f0a200d0979f00e1979f0080
:10405000f2979f00839f9f00cf919700e4815100ca
:10406000c3979f000040eb00a0779f003efb2f000e
:104070000f07470031003700c20120000300200075
:10408000a0fa2f000f004000810407005f90970006
:10409000ef9097007f9197008f99970090b79f00be
:1040a000a1b79f00b2b79f00c3b79f00fc060700ef
:1040b0000004be00670555004240a9000c00340012
:1040c000230707000002be000203be001fb09700d6
:1040d000afb097003fb19700cfb1970094070700aa
:1040e000d0979f00e1979f00f2979f00839f9f00ca
:1040f0006707470070002000050037006f67640005
:10410000cc48dd004444de0008847000c4ccde00ee
:10411000e00f5400e08f5c00050034000000e9006f
:10412000e10f4000f5ff3a00010037000067eb00a7
:104130000000e900fdff3b00670747000a00e000c0
:10414000090034006022b8006033b8005f90970027
:10415000ef9097007f9197008f9997000d060700c9
:104160000000e000c4ff3c0032fb2f000f014100c3
:10417000020757008e0178008b0f570001003400b2
:104180008b0178000300e0002b0035000040eb00bd
:104190008e8f51000a003d0082fa2f000f0141006e
:1041a00003004100b0489000f0c0b300e7cf5000da
:1041b00003003c000040eb00010037008101780063
:1041c0008300e90034fb2f000f024200010142008e
:1041d00012427800804f5200f8ff3200ef4f50003b
:1041e00001003a000449e8000100e00007003d003a
:1041f0008301e8004f90970064004000c0979f0043
:1042000022fb2f000f0141000200370032fb2f007c
:104210000f0141000300780005003700e2407800fc
:104220008100fb005fb29700e4c078000171780064
:104230000000e900f9ff3b005c0890000000e0008e
:10424000ea003d000300e900500e9800e700370047
:104250005f949700ef9497007f9597008f9d97004c
:104260006022b8006033b8000800be000a01be003a
:10427000c30507000000e00005003d000bf0a200b0
:10428000d8979f00e9979f00fa979f008b9f9f0008
:1042900070592700cf9097000088b900026a280063
:1042a000130020002bf5070064045000c8979f00fe
:1042b00015003b0063041400c0ff2f0000046400dd
:1042c0000800ea00c0979f005f909700ef9097006a
:1042d0007f9197008f9997008adb200007003700b5
:1042e0000808a300030032003a02be002a03be0001
:1042f0009a0607000884d100680545000800e00020
:10430000f7ff3c001a0037000800e0001c003200f4
:10431000c0ff2f0000046400c8979f008adb2000c4
:104320006000b8000200200003ff230007003700f0
:104330000808a300030032003a02be002a03be00b0
:10434000860607000884d100680545000800e000e3
:10435000f7ff3c000002be000203be005f90970022
:10436000ef9097007f9197008f9997008e05070037
:10437000d0979f00e1979f00f2979f00839f9f0037
:104380005c0f900060c6b30080cf5600040032007e
:104390006000200061c4b30081cf560002003a00e3
:1043a000cf9097006a8040000e074000f30f57003f
:1043b000010034003e01200000c3b300a0779f003d
:1043c0003bfb2f008f854500350037005fb097001d
:1043d000efb097007fb197008fb9970030060700c4
:1043e0000004be00680757004240a90010003400d6
:1043f000570607000002be000203be005fb0970030
:10440000efb097007fb197008fb99700c8060700fb
:104410006022b80046782d00771924004f06070067
:10442000d0979f00e1979f00f2979f00839f9f0086
:10443000e88545008a0020000801be000c00370016
:10444000a400200005002000a0fd2f000f00400068
:10445000220307005fa89700efa897007fa99700a5
:104460008fb1970004c3b300846541000001be0012
:10447000e00f5100e08f5900060034000a05e90002
:10448000e10f4500eeff3a000200370000c3b30021
:10449000806578000a05e900fcff3b00e8854500df
:1044a0000e00e0000d0034005f909700ef90970041
:1044b0007f9197008f999700d0b79f00e1b79f0039
:1044c000f2b79f0083bf9f006022b8006033b8003e
:1044d000300507000000e000bcff3c0031fb2f006e
:1044e0008f804000818555004f9197006700410003
:1044f000c0979f00020037008b05e9000000e9002b
:10450000010178008200780003c3b300b1cf11002d
:10451000f9ff3200c0979f00dc09900061c6b3002c
:1045200081cf56000300320061c4b30081cf560032
:1045300002003a000000e8000900370010002000e7
:1045400051c6b30081cf5600050032000d407800ff
:1045500050c4b2000080fb000000e9004f00de0004
:10456000830140008b8f5100010034008b017800e3
:104570000300e0001d00350000c3b3008b8f510025
:1045800006003d0062c279006940400041c3b300ab
:10459000814f520001003c00694050008300e90057
:1045a0008100410001003700840178000302e90026
:1045b00001037800a142780080cf5200faff320058
:1045c00091c3b300814f500001003a00054be80051
:1045d0000400e00005003d000201e9008301e8005d
:1045e0004f9297000402e800c4979f004f929700f3
:1045f0008d4078000c007800a00307004f0778007a
:104600004f06be004f05be004f04be00cf04b100f0
:1046100000000600889fbe0000047800e684400089
:104620001900d0004500de00f27f2000820f50000c
:1046300010003a00000ceb00990478006f816400d0
:10464000200020001b003a00210190000200e00041
:1046500018003a00110190000200e00015003a0035
:10466000100020001100e0001200320020002000a5
:10467000100037000000e00004003a00010078005c
:10468000b70207000000e00008003c00f20028002c
:104690001901610001fe2300810c710021c02f006f
:1046a000010c40000080eb0002003700000ceb0022
:1046b0000000eb004f04be0000000600fc8747002e
:1046c000889fbe008a9fbe008c9fbe008e1f780010
:1046d0000006780080c5b30080cf50000a00320089
:1046e0007740400080cf50000a003200694040000f
:1046f00080cf50000b00320050f7200080bf9f0099
:10470000ae0020000a00370042f6200082bf9f0062
:104710000600370053f7200083bf9f008e00200063
:104720000300370054f7200084bf9f000e012000d3
:104730003c02be002c03be000605be000404be0001
:1047400040c6b30080cf50000300320065404000f7
:1047500080cf50000b003a00e00f5200e08f5a006b
:10476000e00f5b00e08f5b0006003d006000b800da
:104770006011b800040450008584580006055900f3
:1047800087855900e80f57000400320040002000e0
:10479000f00f570038003a000100370030002000c9
:1047a000e00f5400e08f5c00e00f5d00e08f5d00e3
:1047b00004003a00dc0890008d0120000100e000b8
:1047c000060032008e00e900888060008fba9700f2
:1047d000e5c07800f1ef9f007d01200080007800a7
:1047e0008100e900050033008b05d1000a85d30064
:1047f0008984d3000884d300f9ff3700089ebe00e7
:104800000a96be00120037008d06e9008e00e9000e
:10481000848060000fb99700e2c1780082fd2f000c
:104820000f01410003f17e00800078008100e90063
:10483000050033008783d1000683d3008582d3002f
:104840000482d300f9ff3700049ebe000696be0026
:104850003c02be002c03be00e00f5200e08f5a0065
:10486000e00f5b00e08f5b008b0034000d00e00088
:10487000e5ff3c00880037002c60900081c6b30043
:10488000814f50000b00320006003c000004e000a5
:1048900008003200e6c05000814f50004e003a0040
:1048a00004003700c1c6b300814f50004a003a00ef
:1048b000210037000800e00004003a005c08900086
:1048c0008d0120000000e000060032001100090008
:1048d0000e84d8000fb99700e2c07800f1ef9f0076
:1048e0007d012000110009000e84d8000a00370065
:1048f000110009000e04d8008d06e9000e81b900f0
:10490000020454008fb8970061417c0081fd2f00a4
:104910008f80400082f07e00000478000800e000f4
:10492000020032000d00e000f1ff3c00cfc4de00c9
:10493000614db90025003700e00f5400e08f5c00a6
:1049400004003a005c0890008d0120000000e000a7
:10495000070032006171b9000800be00760507004b
:104960008fb99700e3417800f3ef9f007d012000ad
:104970006171b9000800be0030f507000b00370078
:104980006171b9000800be0072f307008d06e900ee
:1049900000f1b900020454000fba9700e4427c0011
:1049a00084fd2f000f02420005f27e000004be00cd
:1049b000e00f5000e08f5800020032000d00e000d0
:1049c000efff3c004fcdde008a057800089ebe0058
:1049d0000a96be0030003700e00f5400e08f5c0004
:1049e000e00f5d00e08f5d0004003a005c0890007d
:1049f0008d0120000000e000090032006172b90062
:104a0000612bb9000800be000a01be00bbf507001b
:104a10000fba970064427800f4ef9f007d012000f8
:104a20006172b900612bb9000800be000a01be0026
:104a3000abf507000d0037006172b900612bb900ba
:104a40000800be000a01be00b0f507008d06e900af
:104a500000f2b900040454008fba970065427c004c
:104a600085fd2f008f82420084f27e00009ebe00f2
:104a70000296be003c04be002c05be00e00f5400b0
:104a8000e08f5c00e00f5d00e08f5d00020034000d
:104a90000d00e000e8ff3c00e80f570010003a006e
:104aa0000c1090000038a3000d003200f78f560064
:104ab00006003e0085fd2f008f824200e5c07e008b
:104ac00000c3b30080cf5000050032008d06e9001e
:104ad00002c3b30081fd2f008f80400082f07e0072
:104ae00078811600120e98006c00900083fd2f0054
:104af0008f8141008d8041007ffc07001c089000e1
:104b0000dc089000810f500006003d00008050003e
:104b1000000e98000c1090000040a10000169800b4
:104b20000f0037000100e0000d003d008c109000e8
:104b3000f4806000f08f500009003a007c0990007a
:104b4000fc009000810051000c0990008280500010
:104b5000008050004240a90001003400000e98007f
:104b60004f0778004f06be004f05be004f04be0041
:104b7000cf01b100000006000400fa00889fbe00cb
:104b80008a9fbe008c1f7800000478000106780020
:104b9000f80d90007800900080855500080890007e
:104ba00080855500180890008085550028089000e1
:104bb0008085550038089000808555004808900091
:104bc000808555000002220090bf9f000003230053
:104bd000a0bf9f00081090000028a30015003a0015
:104be0000b00e000130034000b0578008a04780005
:104bf000e20f55000100360029002000c801900096
:104c000009017800ee805700580090000300010071
:104c1000500498000000e0008c003200680890000a
:104c200009004000600c9800090555004240a900a9
:104c3000eeff3c00780190000200e0000c00340020
:104c4000c80190008c00780058009000030001001b
:104c5000500498008080eb000000e0007c003200ef
:104c6000e80890007800900000804000600c9800f8
:104c7000880c90000900e00011003400090578005c
:104c8000e28f5400010036002a002000c801900085
:104c90000a017800ec8057005800900003000100e2
:104ca000500498000000e00068003200680890009e
:104cb0000a004000600c98008a845400edff370021
:104cc000180990000200e0000c003400c8019000b8
:104cd000e800900058009000030001005004980084
:104ce0008080eb000000e00059003200e8089000ee
:104cf0001808900000804000600c9800a80c9000fc
:104d00000900e0001100340009057800e28f54002a
:104d1000010036002a002000c80190000a01780036
:104d2000ec805700580090000300010050049800e8
:104d30000000e00045003200680890000a004000d2
:104d4000600c98008a845400edff37003809900009
:104d50000200e0000e003400e80090001808900007
:104d600080804000c80190005800900003000100be
:104d7000500498008080eb000000e0003400320016
:104d8000e80890003808900000804000600c98000f
:104d9000c80c90000900e0001100340009057800fb
:104da000e28f5400010036002a002000c801900064
:104db0000a017800ec8057005800900003000100c1
:104dc000500498000000e0002000320068089000c5
:104dd0000a004000600c98008a845400edff370000
:104de000081090008000eb000028a300180032009b
:104df0000b00e000160034008b04780009057800f1
:104e0000e28f5400010036002a002000c801900003
:104e10000a017800ee80570058009000030001005e
:104e2000500498000000e00008003200680890007c
:104e30000a004000600c98008a8454004240a90097
:104e4000eeff3c008000eb00010037008080eb00ab
:104e5000010078004f0678004f05be004f04be00e9
:104e60000080fa0000000600a07d2200b00037009c
:104e7000881f7800e80c21001804e00003003a00c5
:104e8000f9ff070020c0b300004c78004f04780001
:104e900000000600889fbe0000047800080078002b
:104ea000540007008004780000042000180060000f
:104eb0000200320028009000fffa07000000eb001b
:104ec00020049800384090000004e0000500350000
:104ed0000000fb00b2ee07000000e000010032001d
:104ee0008084eb00181090000000e0000800320001
:104ef000b4ee07000000e000010032008084eb0007
:104f000018109000ecfa07000000eb001014980055
:104f10000008200018006000150032000001eb00be
:104f20006000b80063d720000202d00063027a005c
:104f3000880f520005003a000000400081804800c0
:104f4000008041000008eb000600370061004000cf
:104f5000e08048000201e800e80f5000e08f5800b0
:104f6000f0ff3a0008007800d3fa07000e0037007f
:104f7000000c780000c0eb00304498006002200074
:104f80000800400020049800400498005004980055
:104f9000400c980060049800500c98007004980031
:104fa00076004400000c9800090078004f04be0011
:104fb00000000600881f78000004eb006140b80084
:104fc000e2ff2f00f3ff2f00de03070042d820008e
:104fd000620078000000e00001003200adff070031
:104fe0000804e800e80f5400f4ff3a004f0478008a
:104ff00000000600889fbe00000478000800e00062
:105000000e003a008004eb008800d00060d720003a
:10501000610078000000e00004003200f5ff0700a6
:105020000000e00001003d008084eb000804e8007f
:10503000e80f5400f4ff3a0025003700000022007a
:10504000180060008004eb0021003200a8049000ea
:105050000f00370009015100384090000000fb00ac
:105060008900780000ee07000000e00007003c0027
:10507000280090004004980060049800500c9800ac
:105080001890a0008084eb00110037008084440059
:1050900048019000828f5400eeff390028009000f4
:1050a000400498009800780002c02000028160004f
:1050b00001003a003800900001e8a300020032002d
:1050c0006004980001003700500c98008004eb0049
:1050d000090078004f04be0000000600881f780019
:1050e0008a9fbe008c9fbe00000478000205be00af
:1050f0000406be000401be000a00be0095f10700d0
:10510000008cbe000c01be008e0307000005550098
:1051100081855d002a0498003b049800080078000f
:105120004f06be004f05be004f0478000000060089
:10513000010020000100e0000800320001008000b2
:105140000100e000050032008100e9000100880054
:105150008100d0000200800000b17800000006004d
:10516000e60040001101780005002800850261007a
:105170006f016100820878000200320012002000f6
:1051800011003700a0019000120020000300e00091
:105190000d003a00900190000300e0000a003a0080
:1051a0001000e00008003a003600370064034000b9
:1051b0009608780080017800530b780090097800f9
:1051c0000408780070015100110278000400e0002a
:1051d000f6ff320013003700640240001403780029
:1051e0004f33de0083814100830873008001780023
:1051f000d3037800cf3bde0014037800060343009e
:10520000068a73001302780004024200100378003b
:105210004f33de0086097200900178000388410058
:105220000201e90091017800ef8f5100eaff36009a
:105230001000370080017800530378004f33dd0001
:105240001002d10004087300640240009403780047
:10525000cf3bdd001303d100868973001103780072
:105260004f33dd009401d100030a73009108d1008f
:105270000201e80091017800ff8f5100edff3e0030
:10528000ef8861009188720002007800000006003b
:105290000400fa00889fbe0000047800e604440081
:1052a000190078008000d000c508de00f47f2000df
:1052b000848f50000e003a00ef00600020002000b4
:1052c0006b003a00a80090000100e00068003a007e
:1052d000980090000100e00065003a0010002000f6
:1052e0001800e0006200320020002000600037005b
:1052f0000100e0000a003a0008007800c2bf9f00e9
:10530000d3bf9f0096ff0700800078000000eb00ed
:105310004fb99700dfb997000100e00054003c004e
:105320004f88de000281400083014800e07f2000ba
:10533000800f5100e08f59000d0034001900e0008b
:1053400004003d006000b8000200200003ff2f00b1
:10535000030037006000b8000200200003ff2700b0
:10536000009cbe000294be001000200040003700e8
:10537000e00f5100e08f5900050034004411dd00ba
:10538000f000280019006000800c71003700370021
:105390001900780004002800040260006f0060001b
:1053a0000040a000800c7800d0fc2f00f1ff2f00ff
:1053b000800f5100818f590006003d00840c780059
:1053c0000000eb002004980010049800000ceb0093
:1053d000270037006f014100060037000800780001
:1053e000500c7800e4004400110878009908780017
:1053f000800ceb00700051007001410001fe2f0095
:1054000082804000ef8f4000f4ff35000000ea008a
:10541000150032008800780070011000d102780079
:10542000822add00980178008019de00038c72006a
:105430006404440098027800822add00910178001b
:105440008019de0083887200990078000209dd006f
:10545000980078008008de00010c71009900780047
:105460000008de00800c7800990c72000080eb00d0
:105470004f04be000080fa0000000600f0874700dd
:10548000889fbe008a9fbe008c9fbe008e1f780042
:1054900000047800814478000205be00040678000c
:1054a0000b00e00002003c001b0020000a0d210060
:1054b00060c6b30080cf54000e00320060c4b30059
:1054c00080cf54000b00320070c6b30080cf540070
:1054d0000300320070c4b30080cf540099003a003a
:1054e000e40f46007f00350058089000800f5600fa
:1054f0007c003d000c06e80060c6b30080cf54007d
:105500001000320060c4b30080cf54000d003200a0
:10551000081090000038a30004003a0058089000da
:10552000808f550001003d005b0c980058089000ea
:105530000c005000500c980002003b000000eb00f3
:10554000500c980018089000e80090000c00e00053
:1055500026003c0002c3b300827078000000e8001f
:10556000100c9800d80890000100e00003003c00f7
:10557000881090000138a30005003200e800900078
:10558000e2c2b300827078000000e800100c9800be
:10559000580890008c00ea00810f500001003d0087
:1055a0000006ea008c00ea00210c98000006460084
:1055b0005c0c98008b0f5600010034000b0678003d
:1055c0003c0c9800e8009000180890000080400013
:1055d0000c0178008a007800c7f90700580890008d
:1055e0000c0650004c0c9800be0037008c8f550004
:1055f00018003d00008040000b0178008a00780010
:10560000bdf907001808900000804500100c9800b4
:105610008b0556002b0c9800d80890000100e00084
:1056200003003c00881090000138a30006003200ff
:10563000e8009000e2c2b300827078003808900061
:105640000000e800300c980058089000400c9800ca
:10565000a4003700008040000c0178008a00780028
:10566000a5f907001808900000004600100c9800eb
:105670008c855500d80890000100e00003003c0034
:10568000881090000138a30005003200e800900067
:10569000e2c2b300827078000000e800100c9800ad
