:020000040000fa
:080000000002040000000000f2
:020000040000fa
:100400006f4d21000efb27000e0188000000000048
:1004100000012000200288000c0007006031270046
:100420000100200011000700000020000000e00093
:10043000020032000000020000000000eeb30200e3
:10044000000000000040da000000fe004440a90067
:10045000807120000000e000030032000000200056
:10046000a00188004440a800000006009101880017
:10047000800078000000eb0015003700e2804000ab
:1004800032a0b4009101ba00e280400032a0b40072
:100490009102ba00e280400032a0b4000002eb00fa
:1004a000472bde00f507b200602ce10004003a00a3
:1004b0000059eb008301e900fdff3e000400370016
:1004c0006128e100010032000082eb000400070017
:1004d0001101ba000200e000e8ff3a000000060047
:1004e0003159ba008301e9000c0032002159ba00e9
:1004f0008301e900080032000400e00003003a0034
:10050000e280400032a0b400f5ff370011d9ba00f4
:100510008301e900faff3a008100e800e180400031
:1005200032a0b40000000600ac830400000000000c
:10053000b483040000000000f48304000000000005
:100540006484040000000000aa840400000000008d
:10055000ec84040000000000388504000000000066
:100560005869040000000000be690400000000009b
:100570006c69040000000000226904000000000013
:10058000246a040000000000d8a00400000000005d
:10059000f6a0040000000000c4a004000000000059
:1005a00006a10400000000001ca1040000000000df
:1005b00056a10400000000009ea1040000000000fd
:1005c000c6a1040000000000de4504000000000099
:1005d000baaa04000000000016ad040000000000ec
:1005e000e4880400000000005665040000000000dc
:1005f0008668040000000000546804000000000049
:10060000a67e040000000000d47b0400000000006f
:100610002a7d040000000000167e04000000000097
:10062000467d0400000000005c7d04000000000026
:10063000067e040000000000a67d0400000000000b
:10064000e27d040000000000ee7d040000000000d8
:10065000467e0400000000006c7e040000000000e4
:100660009a7e040000000000607e0400000000008c
:10067000ac7e040000000000fe8e040000000000bc
:100680006e170400000000009c040400000000003d
:100690005e260400000000000000040000000000ce
:1006a0000040da000000fe001200fa006007980027
:1006b00071079800020f9800042220001407980088
:1006c0002422200024079800642220003407980088
:1006d00084222000440798006e02900060024200cd
:1006e000e20f520041003e00f4fe8300e20f520090
:1006f00008003a0004232000140798002423200057
:1007000024079800642320003407980084232000e5
:10071000440798001e02900094027800040028000c
:1007200004826200e00f520007003a004e0290007f
:100730008002eb00050a78009e0290001502780006
:1007400004f0a000840a78000e0a9000040f7800dc
:100750001c003700040a20005407980003003700eb
:100760005e0290000402e900540798002e029000f7
:100770001402780061026200e00f520003003a00a8
:100780005e029000e00f5200f5ff3a002e0290004a
:100790001402780061026200e00f52000d00320086
:1007a000fe0290003e02900014027800044278009d
:1007b000844a78007e0290000402e80074079800e2
:1007c0001e0fe9001e027800e00f5200e1ff3a0020
:1007d00001003700000000001e0278008e0a900021
:1007e00004825200040f980001003700000000004e
:1007f0000e0a9000040078000080fa000000060055
:100800001000fa00500798006107980072079800de
:1008100004222000140798002422200024079800b6
:1008200044222000340798008422200044079800c6
:100830005e02900060024200e20f520039003e006a
:10084000f4fe8300e20f520008003a000423200067
:100850001407980024232000240798004423200034
:100860003407980084232000440798001e0290005b
:10087000940278000400280004826200e00f520015
:1008800007003a004e0290008002eb00050a780053
:100890009e0290001502780004f0a000840a7800ff
:1008a0002e0290009402780004402000048262002e
:1008b000e00f520004003a00ae02900015027800ea
:1008c00004a0a000840a78007e029000040f780043
:1008d00010003700000000002e0290009402780003
:1008e0000410200004826200e00f5200faff320080
:1008f0006e029000144278008402fb003e029000d9
:10090000050a78006e0290000402e800640798006f
:100910001e0fe9001e027800e00f5200edff3a00c2
:1009200001003700000000007e0290000400780003
:100930000080fa0000000600889fbe0000047800d6
:1009400001007800820478008801780009017800ad
:1009500011002000b90b0700890f50000100320080
:100960000004eb00080078004f04be000000060001
:100970000000fa00e88157004fb9970001fc200001
:10098000c0492000020007000080fa0000000600b5
:100990006200fa00889fbe008a9fbe008c9fbe0046
:1009a0000005780081047800020478008300780054
:1009b00020f92f000f0040009e0b0700ea8f9f00d8
:1009c000f98f9f000002eb00849f9f000b0d210018
:1009d0004a0c2100f9ff2700184278008486fb00aa
:1009e0000d06fb008d06ea00cf6ede0054022000eb
:1009f000840f56000d003200e18f56000b003a00c4
:100a00000d017800880078007f8897006f8a970032
:100a100004000100f08f9f00e00f500089003200b9
:100a20000f9a97000402e800849f9f000d04440081
:100a300054022000840f560004003200e00f5600dc
:100a4000e5ff3a000f9897007f0037000002eb00a7
:100a5000e4979f00d4979f00c4979f00b4979f008e
:100a6000a4979f0094979f00050037000b0050004b
:100a7000000040006a027800af9a9700048272007a
:100a8000a49f9f00080678000c047800b846780000
:100a90008d00fb00000d2100550b0700e00f5000fa
:100aa000f2ff3a00a4c2b30084cf56000e003a0011
:100ab0009f8a97000582e900948f9f0014027800b6
:100ac000949f9f00e00f520005003d000402ea00e1
:100ad000949f9f002f9a97000420a000a49f9f003e
:100ae0000c04e8000d003700909f9f0004003700c1
:100af000890f5000020032006a00b9000000420075
:100b00000c047800080678003c02fb000403b100e6
:100b1000e90f5200f6ff3600909f9f00e4c2b30039
:100b2000984f1200020032000082eb0018003700dc
:100b3000a4c2b300d84f120007003a009f8a970062
:100b40000582e900948f9f0014027800f4979f00bb
:100b50000804e8000f0037000002eb00f4979f0044
:100b60008802780004003700890f5200020032002a
:100b70006a20b9000002430005047800880278006a
:100b80003503fb000603b100e90f5300f6ff360002
:100b9000f4979f00184678008c00fb00c00b2100e2
:100ba000130b0700e00f5000020032000804e800b9
:100bb0000100370000467800ec779f0084c6b30040
:100bc000844f560004003a00984f16000a003a007d
:100bd0006642520006003700c4c6b300844f560078
:100be00005003a00984f160003003a0065424200a3
:100bf000e4779f000804e8001801fb0083fb2f0046
:100c00008f81410021f92f008f80400040f92f0093
:100c10000f00400011000700e00f500009003a00eb
:100c200081fb2f008f80400040f92f000f00400013
:100c3000110f0700e00f5000020035000804e80023
:100c400065ff37000080eb004f06be004f05be0079
:100c50004f04be000080fa0000000600889fbe001e
:100c60008a9fbe00e4c6b300844f5100bf0032002b
:100c700010003c006b425200844f510018003200bb
:100c800005003c0054c2b300844f5100f90032000b
:100c900084c5b3000f00370044c6b300844f510031
:100ca0001500320065424200844f5100f4003a00c2
:100cb0001100370004c7b300844f5100df00320039
:100cc0005800350065424200844f51005500320003
:100cd00063424200844f5100e9003a00510037005e
:100ce0009182e900850878007002900095427800b2
:100cf00085717a00e800370020629000c5c6b30015
:100d0000854f520009003a00110278006404520035
:100d1000880878001802be0098009000cf88de0096
:100d200001037800810378001200370015c7b30073
:100d3000854f520003003200a5c6b300854f520014
:100d400006003a0091027800688252008408780018
:100d50005403be004402be00060037001182e900c1
:100d60008408780014027800cfa2de000503780022
:100d7000860378000498be000690be00a060900034
:100d800088c6b30088cf50000e00320028c6b300da
:100d900088cf500005003a000402fb00cfa2de001d
:100da00005037800860378000900370048c7b300c0
:100db00088cf5000030032006644440088cf5000c2
:100dc00005003a00cfa2de00050378008603780014
:100dd0000498be000690be003004be002005be0090
:100de00070029000d5c2b300e00f5400e08f5c00a9
:100df000e00f5d00e08f5d0008003500801290007c
:100e00006283620002003200b5c2b3000300370003
:100e1000e18262005000320005c2b30085717a00a1
:100e20004b00370020629000c5c6b300854f5200ca
:100e300007003a0011027800640452008808780024
:100e40001802be000003eb00860378001200370092
:100e500015c7b300854f520003003200a5c6b3008a
:100e6000854f520006003a009102780068825200d5
:100e7000840878005403be004402be000600370018
:100e80001182e9008408780014027800050020002f
:100e900006002000070020000498be000690be0057
:100ea000a060900088c6b30088cf50000e003200ca
:100eb00028c6b30088cf500005003a000482fb002a
:100ec0000500200006002000070020000900370070
:100ed00048c7b30088cf5000030032006644440086
:100ee00088cf500005003a000500200006002000d1
:100ef000070020000498be000690be00001290007b
:100f000068026200140032003002be002003be00fe
:100f1000e00f5200e08f5a00e00f5b00e08f5b00b3
:100f20000d00320084c7b300844f5100030032002b
:100f300084c5b300844f510007003a00700290004e
:100f400005c3b30085717a000402e80082717a005b
:100f50000402e8007400980070029000848141004f
:100f6000630098008240780040003700a062900043
:100f7000c6c6b3001182e90086cf520023003200ba
:100f80000a003c006443530086cf52002600320022
:100f900006c3e80086cf52001300320068435300b6
:100fa00086cf52001f003a000a00370046c7b30040
:100fb00086cf52001c0032006643430086cf5200a9
:100fc000190032006943530086cf520015003a00e1
:100fd000050037008408780014027800405890001b
:100fe000004a78002e003700840878001402780048
:100ff00060089000cf80de00010178008201780057
:10100000009abe000292be002500370084087800d6
:1010100014027800600b9000cfb3de00068abe0099
:101020001f0037001182e90084087800140278005c
:1010300060089000000a7800190037001182e9006a
:101040008408780014027800cfa2de00050378003f
:10105000860378000498be000690be0070029000df
:10106000848141006300980081c7b300c50c07006c
:101070000b0037007002900082717a000600370082
:101080007002900084814100e04f510001003a005d
:1010900052c2b300824978000402e800740098004c
:1010a0000000eb004f05be004f04be00000006002c
:1010b0002200f8002400f8002600f8000100b80023
:1010c0000000e9004400f800010f20002102880020
:1010d000820078003800f8003a00f8003c00f80080
:1010e0003e00f8004000f800008008000400000006
:1010f000b30278000500ca00b40278000500c900f8
:101100003200cc004000f9003e00f9003c00f9003c
:101110003a00f9003800f900010078004400f900b5
:101120002600f9002400f9002200f9000000060062
:101130002200f8002400f8002600f800889fbe0076
:101140008a9fbe008c9fbe004400f8000d0f200057
:101150002d028800830678000106e9008205e90077
:1011600081804000020141000000e90024003500b8
:10117000050578003800f8003a00f8003c00f80057
:101180003e00f8004000f8000b800800140000004a
:10119000040478008a0478001201c3003800f800c3
:1011a0003a00f8003c00f8003e00f8004000f8006b
:1011b0000c800800030000003803780099037800d1
:1011c0001201c600828444004000f9003e00f9008c
:1011d0003c00f9003a00f9003800f9003300cd0076
:1011e0000a85e8004000f9003e00f9003c00f900e3
:1011f0003a00f9003800f90001024200daff370036
:101200000d0078004400f9004f06be004f05be00f7
:101210004f04be002600f9002400f9002200f90066
:10122000000006002200f8002400f8002600f80064
:101230004400f800050f2000250288000100b800d6
:101240000000e900820078003800f8003a00f80059
:101250003c00f8003e00f8004000f8000080080064
:1012600002000000b30278001301c0003200cd007c
:101270004000f9003e00f9003c00f9003a00f90096
:101280003800f900010078004400f9002600f90058
:101290002400f9002200f900000006002200f800f6
:1012a0002400f8002600f8002800f8002a00f800c2
:1012b0002c00f8000100b8000000e9004400f8002c
:1012c000010f200021028800820078003800f80019
:1012d0003a00f8003c00f8003e00f8004000f8003a
:1012e0000080080005000000b30278000500ca0075
:1012f000b40278000580ca000030cb003200cc0078
:101300004000f9003e00f9003c00f9003a00f90005
:101310003800f900010078004400f9002c00f900c1
:101320002a00f9002800f9002600f9002400f9003d
:101330002200f90000000600820278000000e900a7
:101340000102e900818040003800f8003a00f8000e
:101350003c00f8003e00f8004000f800048008005f
:1013600011000000030278003800f8003a00f8008d
:101370003c00f8003e00f8004000f8000080080043
:101380000100000014197800010242004000f90039
:101390003e00f9003c00f9003a00f9003800f9007d
:1013a000000000008381e800000000004000f90018
:1013b0003e00f9003c00f9003a00f9003800f9005d
:1013c00005007800000006002200f8002400f80064
:1013d0002600f8004400f800040f200024028800d2
:1013e000010278000000e9003800f8003a00f80037
:1013f0003c00f8003e00f8004000f80000800800c3
:1014000004000000b20278000500ca00b3027800b0
:101410000500c9003100cc004000f9003e00f90091
:101420003c00f9003a00f9003800f90004007800a7
:101430004400f9002600f9002400f9002200f90018
:10144000000006002200f8002400f8002600f80042
:10145000889fbe008a1f78004400f800070f200014
:1014600027028800821f78008103e9000005eb0055
:101470003800f8003a00f8003c00f8003e00f800a0
:101480004000f80007800800140000000304780002
:10149000840478001201c3003800f8003a00f80014
:1014a0003c00f8003e00f8004000f8000a80080008
:1014b00002000000b8027800290378001201c4007d
:1014c0004000f9003e00f9003c00f9003a00f90044
:1014d0003800f9003200cd000482e8000a05e80077
:1014e0004000f9003e00f9003c00f9003a00f90024
:1014f0003800f9000482e9008381e800010550000a
:10150000210034000a05e9003800f8003a00f8002c
:101510003c00f8003e00f8004000f8000a80080097
:101520001300000003047800840478001201c30053
:101530003800f8003a00f8003c00f8003e00f800df
:101540004000f8000780080002000000b8027800a0
:10155000290378001201c4004000f9003e00f900a0
:101560003c00f9003a00f9003800f9003200cd00e3
:101570008381e8004000f9003e00f9003c00f900da
:101580003a00f9003800f9008703e900210035002e
:101590003800f8003a00f8003c00f8003e00f8007f
:1015a0004000f800078008001400000003047800e1
:1015b000840478001201c3003800f8003a00f800f3
:1015c0003c00f8003e00f8004000f80007800800ea
:1015d00002000000b8027800290378001201c4005c
:1015e0004000f9003e00f9003c00f9003a00f90023
:1015f0003800f9003200cd008381e8008703e9005c
:101600004000f9003e00f9003c00f9003a00f90002
:101610003800f9004f0078004400f9004f057800c9
:101620004f04be002600f9002400f9002200f90052
:10163000000006003600f800810178000000e90093
:1016400000800900b2187800030078003600f90025
:1016500000000600840378008102e9008502d000c2
:10166000050342008102d1008502e9003800f8003c
:101670003a00f8003c00f8003e00f8004000f80096
:101680000580080002000000960278001713780019
:10169000851b78004000f9003e00f9003c00f9008d
:1016a0003a00f9003800f900220a020000000000a8
:1016b000000006002200f8002400f8002600f800d0
:1016c0004400f800040f2000240288000000e90014
:1016d0001201c3003800f8003a00f8003c00f8009e
:1016e0003e00f8004000f800008008000200000002
:1016f00031027800b20278001201c0004000f90007
:101700003e00f9003c00f9003a00f9003800f90009
:101710000000cd004400f9002600f9002400f90083
:101720002200f90000000600b10278000009eb0079
:101730000002e90007003400b10178000328e1004d
:1017400002003c0083027800040950000402e90012
:10175000f9ff3c000500780000000600b1027800a7
:101760000009eb000002e90007003400b101780035
:101770000328e100020035008302780004095000cc
:101780000402e900f9ff3c000500780000000600b3
:101790002200f8002400f8002600f8004400f800b9
:1017a000040f200024028800811f78000000e90057
:1017b0003800f8003a00f8003c00f8003e00f8005d
:1017c0004000f800008008000300000032027800aa
:1017d000b30278001301c0003100cd004000f900d1
:1017e0003e00f9003c00f9003a00f9003800f90029
:1017f0004f0078004400f9002600f9002400f900a9
:101800002200f900000006002200f8002400f80081
:101810002600f8004400f800030f2000230288008f
:10182000810178000000e900040028001201c300d3
:101830003800f8003a00f8003c00f8003e00f800dc
:101840004000f8000080080003000000b2027800a9
:101850001201c0003100cc001201c3004000f900a9
:101860003e00f9003c00f9003a00f9003800f900a8
:10187000030078004400f9002600f9002400f90074
:101880002200f900000006002200f8002400f80001
:101890002600f8004400f800020f20002202880011
:1018a0000000e9001201c3003800f8003a00f80017
:1018b0003c00f8003e00f8004000f80000800800fe
:1018c00001000000310278001001f0004000f90032
:1018d0003e00f9003c00f9003a00f9003800f90038
:1018e0000000cd004400f9002600f9002400f900b2
:1018f0002200f900000006002200f8002400f80091
:101900002600f8004400f800040f2000240288009c
:10191000811f78000000e900030278003800f80019
:101920003a00f8003c00f8003e00f8004000f800e3
:101930000080080002000000b20278001301c0001d
:101940003100cd004000f9003e00f9003c00f900f4
:101950003a00f9003800f9004f0078004400f9001f
:101960002600f9002400f9002200f900000006001a
:101970002200f8002400f8002600f8002800f800f3
:101980002a00f8002c00f8004400f800040f2000a2
:1019900024028800010278000000e9003800f80005
:1019a0003a00f8003c00f8003e00f8004000f80063
:1019b0000080080005000000b20278000500ca009f
:1019c000b30278000580ca000030cb003100cc00a3
:1019d0004000f9003e00f9003c00f9003a00f9002f
:1019e0003800f900040078004400f9002c00f900e8
:1019f0002a00f9002800f9002600f9002400f90067
:101a00002200f900000006003600f800020378000a
:101a10000002d0008102e900820078000301780012
:101a20001a0b02000000000004004000010020002a
:101a30000580090001187800060078003600f900da
:101a4000000006009540a90041e2a9008540a900d8
:101a5000000006009820a90061e2a9008820a900e2
:101a6000000006008540a900e7026000c82add00ea
:101a7000f48f2f0046058000060262000502720006
:101a800044058800680060004300de0061006000db
:101a90004a00dd00f4bf2f00a504800005026200ab
:101aa00000027200a4048800000006008820a9003b
:101ab000e7026000c42add00f4f82f00a6058000cc
:101ac0000602620005027200a4058800680060003a
:101ad0004300de006100600000004000d4ff2f00e2
:101ae000c50480000502620000007200c004880086
:101af00000000600101288002112880002128800df
:101b000000000600101388002113880002138800cb
:101b10000000060003f0a200889fbe008a9fbe005e
:101b20008c1f7800260107002d0133006450e1006e
:101b30004f0032006420e1005200320003826c004a
:101b400007003b000905d0000306d000820f5400b7
:101b50000c065d00020039000200320089017800a5
:101b6000030678008582550004003d000003fd0057
:101b70008103fd008502ea008b854200840f72001c
:101b800002003b0060001000e08018006011b80007
:101b90000005eb007a28e1000a0039000600780011
:101ba000c75ddd00f707b200878075002d003700a4
:101bb000828171000a017800610560008180d10096
:101bc0000080d3008502e900f9ff3b0006044000d5
:101bd0008784480002003b0060041400e0841c007d
:101be0000988a300070032008a8171008281710098
:101bf000610164008904d1000884d3008b05e800ea
:101c0000170037000978a30013003a000b00e0002a
:101c1000130034008b05e9000804440089844c005b
:101c20000a4474000978a3000d003a000b00e0009c
:101c3000070034008b05e9000804440089844c0047
:101c400001003a000b0020000978a300f7ff3200e2
:101c50000001eb0002003700828171000a01780068
:101c60009c0007000cf0a70001f0a000e500370081
:101c70006420e10002003a00838f6c00e50033002d
:101c80000801be000200be00de003700889fbe00d3
:101c90008a9fbe008c1f7800c9000700d000330067
:101ca00003866c006450e1002e0032006420e100e5
:101cb000330032006150e1002f0032006120e1006a
:101cc0003100320085855500eb07b0000900200087
:101cd00008042000050037000804440089844c00f3
:101ce0000a0031000603430087834b0000015300c4
:101cf00081815b00f8ff33000203be000800a000f2
:101d00000804440089844c00f6ff3900c639dd0020
:101d10008301730001003200130020008904d10008
:101d20000884d3000998a300050032000800a7002a
:101d30000300a0008904d1000884d3008b05e800cb
:101d40008904d1000884d3000001eb000281d20095
:101d50006000070001f0a1000cf0a70001f0a00056
:101d6000a80037006420e100aa0032000801be008c
:101d70000200be00f7ff37006120e100a50032003d
:101d80006000b800f3ff37000000200001f82700d2
:101d9000f0ff3700839f68000100e00002003d0073
:101da00060001000e08018000300e00002003d0029
:101db00060011100e0811900b00107004f00e00050
:101dc00002003b0060001000e080180000000600e8
:101dd0000001be00650007000470a70003f0a10029
:101de0006509b100160032000d0035006828e100d9
:101df00006003500f0ff2f00f1ff27000300e00090
:101e000013003b0001002800000005000000400016
:101e1000818048008502e900fcff3a000800370095
:101e2000f88f420002003c008000eb00000005003b
:101e30008100d1000080d3008502e800fcff3a0059
:101e40000300e00002003b0060001000e08018008a
:101e5000000006000001be00440007000470a70057
:101e600003f0a10003f8a30013003a006509b100d4
:101e700010003200090035006928e1000200350039
:101e8000010028000000050000004000818048009b
:101e90008502e900fcff3a0000000600f88f4200ce
:101ea000050035008100d1000080d3008502e800e4
:101eb000fcff3a00000006008000eb000000050077
:101ec0004f89de00820178002a0337006011b800d4
:101ed0003803370081002000618055000b003d0071
:101ee0000b00200061fe2f000100e1001d00340006
:101ef00082817100610164008904d1000884d300eb
:101f00000000e800faff3a00710020006100640060
:101f10000300700002006000090032006104440008
:101f2000e0844c000988a500050032008b05e8001c
:101f30006808e10002003a008904d1000884d30057
:101f4000f20f20000258e10005003d00c75ddd00f2
:101f5000f907b200898075000800780000000600cb
:101f60000bf827008b00780000000500c70ade0090
:101f7000f107b200f50fb20008003200e1cf4200d5
:101f8000020032000170a00024000500810f7000e3
:101f9000010032000408050044000500810f7000b4
:101fa00002003a00140005008502e900000040002c
:101fb00081c04800fcff3b000170a0002400050028
:101fc0000004be00e9ff07000003be000405be00d8
:101fd0000200be00e5ff0700844f75000000060008
:101fe0000200be006450e100050036006420e100fc
:101ff000020036000968a30001003a000800be0094
:102000000160a0004f0678004f05be004f04be00df
:1020100000000600f0ff2f00f1ff2700f9ff370056
:10202000889fbe008a9fbe008c1f7800e4ff0700d7
:10203000ebff330003866c006450e10024003200a3
:102040006420e100270032006150e10022003200ec
:102050006120e100210032008b854200eb07b100d6
:102060000134b800003ab8000804420089844a00ec
:10207000013ab8000030b8008880400009014a00e9
:102080000400330000004000818048000201490044
:102090008b05e900c909dd008301700001003200f1
:1020a00013002000c814de004814dd004709de00dc
:1020b0001200b200c808de000884700085ff070027
:1020c00001f0a1000cf0a70001f0a000cdff370047
:1020d0006120e100cfff32000801be000200be0017
:1020e000f7ff37006150e100fcff3a00c9ff3700fd
:1020f0000c00fa00889fbe008a9fbe008c9fbe0025
:10210000afff07000206be00840578000200be0093
:10211000020020006c02070005003a008b02b300a9
:10212000120020006802070001003a00f8856d00e7
:102130000c01be00c60007000800be009b00320074
:102140000b08a3009e003a000df0a7000be0a000d2
:1021500009f0a7000bf0a00009f0a1000801be00e3
:10216000bb0007000bf0a6009500320001003c0008
:102170000bd0a0008acf7500b20033006000b80019
:102180006250e10099003900a1003e000b28a30035
:10219000a2003a000bf8a300060032000b58a3007f
:1021a000a70032000801be00a90007000800be0019
:1021b000940032000800be00d40107000004be00f5
:1021c000050578000bf0a7000b30a6000bf0a1006e
:1021d0005b079800324f200053f323006102070091
:1021e00005003d000800be0012002000a00207000c
:1021f0000004be000a05e9004a0798006150b900d2
:102200002fff0700008fbe000c01be0084ff0700f7
:10221000effe0700300798000100e00002003d00db
:1022200060001000e0801800f2ff2700820f5000cd
:10223000e08f580064003e000c00be00e4fe070082
:1022400020079800f2072000820f5000e08f58000e
:1022500005003c0012f82f00f3ff2f00820f500002
:10226000838f580009003d000a00e000030032009f
:1022700001003c000201ea00020578006000b8009d
:10228000200798003a079800190037003e00900098
:102290006100b9000aff0700809fbe000c00be006d
:1022a0004109dd004811de007208b1000602070096
:1022b0000005be001e01be0059ff07004f01be0011
:1022c00014fe0700809fbe000c00be000a01be0085
:1022d00010fe07001e01be0051ff07004f01be00a7
:1022e0000dfe07008221270013f323004cff070097
:1022f0000005be002e0090006100b900f0fe07004e
:1023000001f0a2000c01be0003fe07000006be00a3
:102310000800be00780207000c01be0040ff070065
:102320000a01be00fcfd0700809fbe004a000700b6
:102330002e0590000af0a7000a05ea000500370004
:102340000800be000801be0035ff07000004be0003
:102350000c00be000801be000a00a70030ff070005
:102360000006be000a05d100f5ff3a005e019000ac
:1023700002e0a600030037000001be00360007009f
:1023800042fe07000004be004f00be006c010700c3
:102390000801be0022ff07003e0190003402070042
:1023a000de0590000bf0a70001f0a2004f06be0072
:1023b0004f05be004f04be000080fa00000006007a
:1023c00025000700f9ff3700270007006000b8006c
:1023d0000bd0a7000bc0a0000be0a7000bc0a20011
:1023e0000bc0a70001f82700f0ff37000df8a3008d
:1023f000020032001e000700190007000bf8a300be
:10240000eaff32000b30a70001f0a200e7ff37001f
:102410000df8a300f9ff3a00f7ff37000801be00ee
:102420000b000700e6ff320001003c000df0a200a7
:102430006000b8000df0a70009000700dbff3700bf
:102440000b000700f1ff2700f0ff2f00d7ff370038
:1024500001000700c301370001f823000000050058
:1024600001f82700000005002002200001003700cd
:1024700010022000b07c8800000006006022b80036
:10248000060220000000d0008180d2000482d20029
:102490008582d2000000a0000202520083825a000e
:1024a000030031000202420083824a000000a100c2
:1024b0000603e900f3ff3a0000000600889fbe0013
:1024c0008a9fbe003004be002005be000404440004
:1024d00085844c0006054d0087854d000898be0098
:1024e0000a90be000440e10005c8e10006d0e1000a
:1024f00007d8e10002003100680040001008e80041
:102500004f05be004f04be00000006001000fa0098
:10251000889fbe008a9fbe000605be000404be0060
:102520003002be002003be00c4b79f00d5b79f0095
:10253000e6b79f00f7b79f000802520089825a0051
:102540000a035b008b835b0084bf9f0095bf9f00e5
:10255000a6bf9f00b7bf9f000498be000698be00ac
:10256000110020004fb29700dfb297006fb39700c1
:10257000ffb397000820e10009a8e1000ab0e100dc
:102580000bb8e100010039008000eb00108810005a
:102590004f05be004f04be000080fa000000060098
:1025a0001400fa00889fbe008a9fbe008c9fbe0068
:1025b0003f0007000605be000404be000006eb0055
:1025c000ccb79f00bcb79f00acb79f009cb79f00e3
:1025d0008cb79f000d0420004fb39700bfb2970047
:1025e000860343002fb29700e00f530004003d0024
:1025f0003d0007000f004000b0ff07000300370058
:10260000390007000f004000c0ff0700cfb297005d
:1026100095bf9f00e08f5200090035002b00070096
:1026200014002000050020006033b8000000720094
:102630008180720002017300838173001c00070017
:102640000c06e8008d0f5600e3ff3a001fba970012
:10265000e00f520005003d000802be000a03be0064
:1026600000fe2f000f00400094ff07004faa9700c4
:10267000e00f520008003a000fb497009fb4970093
:102680002fb59700bfb59700d8b79f00e9b79f0057
:10269000fab79f008bbf9f000c0007004f06be00db
:1026a0004f05be004f04be000080fa000000060087
:1026b000010007000000060090b79f00a1b79f002f
:1026c000b2b79f00c3b79f000000060001000700db
:1026d000000006001fb09700afb097003fb1970011
:1026e000cfb19700000006004f2bde008703730078
:1026f000a7b79f004f23de0085824200850273004a
:1027000095b79f00ffaa97004f2bde0004024200fe
:102710000402730084b79f006faa97004f23de0066
:102720008582420085027300f5af9f00e9ff070034
:102730004f18de000402420000027200e4af9f0066
:10274000e4ff0700000040008180480002014900ca
:1027500083814900d8ff07000802be000a03be00bb
:1027600000fe2f0000000600881f780018002000df
:10277000881f78008aff07008f87e9004f047800e0
:1027800000000600801feb0085ff07008f87e9002f
:1027900000000600889fbe008a9fbe00e00f500028
:1027a000e08f5800e00f5900e08f59000c003d0009
:1027b0006044b8006055b8000000540081805c009f
:1027c00002015d0083815d001800200015000700f4
:1027d00008003d00180007000004eb00050037006a
:1027e0000004eb000f00070002003d00120007008c
:1027f00018002000dcff0700e00f54000600320044
:102800006022b8006033b8000000520081805a0096
:1028100002015b0083815b004f05be004f04be00d8
:1028200000000600e00f5200e08f5a00e00f5b004e
:10283000e08f5b00000006006044b8006055b800ff
:102840000402540085825c0006035d0087835d00fe
:1028500000000600889fbe008a9fbe008c1f780083
:10286000e00f5000e08f5800e00f5900e08f590052
:102870000d003d006044b8006055b80000005400f1
:1028800081805c0002015d0083815d001c002000ee
:102890000820e10009a8e1000ab0e1000bb8e1005e
:1028a0000d003d00080037000006eb00e00f52006d
:1028b000e08f5a00e00f5b00e08f5b0006003d00f8
:1028c0006044b8006055b8000402540085825c0082
:1028d00006035d0087835d00aaff0700e00f560036
:1028e000060032006022b8006033b80000005200d9
:1028f00081805a0002015b0083815b004f067800f3
:102900004f05be004f04be00000006000003be00dd
:1029100096fd07006220e100020032000600be00c2
:1029200005000500e507b100f107b20004f023003f
:102930008480700007f0a70001f0a00024000500cb
:10294000889fbe008a9fbe008c9fbe000004be0010
:1029500086fd07000800be006420e10048003e003c
:102960005500320072212700132b24007f0007003e
:1029700047003c000800be00c2ec2800e32c2c00fd
:1029800078000700470035000800be0001f0a100f4
:1029900002002000033823007200070043003500c6
:1029a0000800be00b2a32a0083fb23009cfd0700a1
:1029b0000200200003f0230001f0a70003f0a000b4
:1029c00055fc070002fd07000005be003cfd0700a6
:1029d00001f0a2000006be000200280013f323004d
:1029e0008ffd07000801be004bfc0700809fbe0062
:1029f0000c00be0032082800e3952b0088fd07007c
:102a00004f01be0044fc07000006be000001be00ee
:102a100083fd0700809fbe004241250083b823004c
:102a20007ffd07000200200003e823003afc0700b6
:102a30000c01be007afd07000006be004f00be007c
:102a4000f2f92b00c3d4230075fd0700020020001b
:102a500003f0230030fc07000c01be002dfc070032
:102a60000001be000c00be0088fc07000200200030
:102a700003f0230028fc0700610145007c000700eb
:102a80004f06be004f05be004f04be00000006000a
:102a900001f827000000200022022000b27c8800fc
:102aa000f7ff37006000b800fbff370001f8230094
:102ab00000002000f2ff370009f8a300f0ff320009
:102ac0006000b800eeff3700889fbe008a9fbe00fe
:102ad0000003be0025fd07008505780082815200b5
:102ae000020020006220e10004003a00f307b10078
:102af000040035007718e100040035000600be0030
:102b0000140037006000b8000f003700f50f2000f8
:102b1000faff2f008502d1000a85d3008301e90066
:102b2000fcff3b008184620000046500890f740093
:102b3000f2ff32008582ea000a85ea0081846200a1
:102b400000046500e3fc070007f0a70001f0a00007
:102b50000081eb000200e0004f05be004f04be0004
:102b60000000060014002000ba003700f4ff2f0018
:102b7000b8003700881f7800030478000300e000e5
:102b800007003d0060001000e0801800600119009f
:102b9000e081190002003b0001f02d000300370026
:102ba0000400070008f0a70001f0a0004f0478001f
:102bb00000000600889fbe008a9fbe000082700051
:102bc0000402710004827100260032000004be007d
:102bd0000200be006011b8006b09200095022000c1
:102be0000182cf000a0039000541b1000082cf0008
:102bf000070039000541b1000982cf000400390007
:102c00000541b1000882cf00010039000541b10043
:102c100005425200120032000a003b00828171001e
:102c2000610164008100d1000080d3008984d30059
:102c30000884d3008b05e8000442e800f7ff3a005f
:102c4000070037000804440089844c000000480055
:102c5000818048008b05e9000442e900f9ff3a0051
:102c60009cfc07004f05be004f04be00000006009c
:102c70000003be00bdfc07006220e100020032003c
:102c80000600be000000060085024100e30f2000a0
:102c90000328e10005003c00a3fe2f000328e1000b
:102ca00007003d000500200001003700f50f20005f
:102cb00020022000b07c88006000b80008003700c7
:102cc000130020008381520005003d008100d100e7
:102cd0000080d3008301e800fcff3a0005002000db
:102ce000c72add00f107b2008580700007f0a70059
:102cf00001f0a00000000600889fbe008a9fbe0071
:102d00008c9fbe0001ff0700850478000005be000f
:102d10006420e10049003e006220e100030032002f
:102d2000090035000bf8a300440032000bf8a300a3
:102d30000800320010022000b07c8800f0ff2f0055
:102d4000f1ff27003d00370001f82f0000002000b0
:102d50003a0037003d0007006efb07000006be008a
:102d60000a00be00324f200053f323007fff07000c
:102d7000060034000c00be003400070065fb0700ad
:102d80000006be000a00be00020037008904e90008
:102d90000c00be002d000700a1fc07002b0007005f
:102da0005dfb07000001be000c00be00b7fb070082
:102db0000005be000001be0099fc07000006be0031
:102dc000a2f32300430d2c0053fb0700809fbe009d
:102dd0000c00be00d2e32700d3f02b0090fc0700cc
:102de0004f01be00a9fb07000006be000a01be009d
:102df0008bfc07000a01be0047fb07000006be006f
:102e00006148b9002efc07000005be00320828000a
:102e1000e3952b0082fc07000c01be003efb07007f
:102e20000006be000a00be000200280013f32300c3
:102e30007bfc07000c01be0037fb07004f06be00fd
:102e40004f05be004f04be000000060003f0230043
:102e500002000500889fbe008a9fbe00841f780084
:102e600057fc07004f00780011003300f0ff2f00df
:102e7000838f6c0006003b00040565000a00a70074
:102e80000800370009f0a6001000200008003700f5
:102e9000820f5400838f5c00030039001000200073
:102ea00001003e000000200009f0a7000000ea0039
:102eb0004f05be004f04be000000e0000000060009
:102ec00000027800840278000043eb00b44f130046
:102ed000fcff3a000080520000000600889fbe0000
:102ee000000478001802900082047800848f540057
:102ef0000100360084047800180078000901780089
:102f0000aa020700188c440018029000890452009d
:102f100019049800080078004f04be000000060065
:102f20000400fa00e08f500003003a000f82e9002d
:102f3000e4bf9f0002003700e0bf9f008100e9006e
:102f4000f1bf9f00e4805700e076210004000700f5
:102f50006fba9700004aeb000080fa0000000600fc
:102f60006200fa00889fbe008a9fbe008c9fbe0050
:102f7000000578008104780002047800830078005e
:102f800020f92f000f0040002a020700ea8f9f005f
:102f9000f98f9f000002eb00849f9f008bfd2700ac
:102fa000cafc2700f9ff2700184278008486fb003e
:102fb0000d06fb008d06ea00cf6ede0054022000f5
:102fc000840f56000d003200e18f56000b003a00ce
:102fd0000d017800880078007f8897006f8a97003d
:102fe00004000100f08f9f00e00f500089003200c4
:102ff0000f9a97000402e800849f9f000d0444008c
:1030000054022000840f560004003200e00f5600e6
:10301000e5ff3a000f9897007f0037000002eb00b1
:10302000e4979f00d4979f00c4979f00b4979f0098
:10303000a4979f0094979f00050037000b00500055
:10304000000040006a027800af9a97000482720084
:10305000a49f9f00080678000c047800b84678000a
:103060008d00fb0080fd2700e1010700e00f50000c
:10307000f2ff3a00a4c2b30084cf56000e003a001b
:103080009f8a97000582e900948f9f0014027800c0
:10309000949f9f00e00f520005003d000402ea00eb
:1030a000949f9f002f9a97000420a000a49f9f0048
:1030b0000c04e8000d003700909f9f0004003700cb
:1030c000890f5000020032006a00b900000042007f
:1030d0000c047800080678003c02fb000403b100f1
:1030e000e90f5200f6ff3600909f9f00e4c2b30044
:1030f000984f1200020032000082eb0018003700e7
:10310000a4c2b300d84f120007003a009f8a97006c
:103110000582e900948f9f0014027800f4979f00c5
:103120000804e8000f0037000002eb00f4979f004e
:103130008802780004003700890f52000200320034
:103140006a20b90000024300050478008802780074
:103150003503fb000603b100e90f5300f6ff36000c
:10316000f4979f00184678008c00fb00c0fe2700f3
:103170009f010700e00f5000020032000804e80041
:103180000100370000467800ec779f0084c6b3004a
:10319000844f560004003a00984f16000a003a0087
:1031a0006642520006003700c4c6b300844f560082
:1031b00005003a00984f160003003a0065424200ad
:1031c000e4779f000804e80083fb2f008f81410013
:1031d0001841780021f92f008f80400040f92f001e
:1031e0000f00400011000700e00f500009003a00f6
:1031f00081fb2f008f80400040f92f000f0040001e
:103200009d050700e00f5000020035000804e800ab
:1032100065ff37000080eb004f06be004f05be0083
:103220004f04be000080fa0000000600889fbe0028
:103230008a1f780000047800824478000305780033
:1032400074c6b30084cf540021003c0004c2e900de
:1032500084cf5400d7003d007242520084cf540006
:10326000400132000d003c006c42520084cf5400fb
:1032700053013c0004c2e90084cf5400cd003d005e
:1032800054c2b30084cf54004a0132007c42420051
:1032900084cf54004a013a00c600370014c6b30078
:1032a00084cf5400c300320004003c006942520045
:1032b00084cf540042013a006c00370034c6b3009a
:1032c00084cf5400180032000442e800090037009f
:1032d00004c7b30084cf54001301320008003c003f
:1032e00004c2e90084cf5400db0032005f003c00e0
:1032f0006542520084cf540031013a00100037007b
:1033000054c7b30084cf54005800320063424200d7
:1033100084cf5400550032006542520084cf5400df
:1033200027013a000f0137009182e90085087800f3
:10333000780290009542780005757a0026013700e2
:1033400028629000c5c6b300854f520009003a00bc
:103350001102780064005200800878001002be005c
:10336000100090004f80de0000037800800378009a
:103370001200370015c7b300854f5200030032001a
:10338000a5c6b300854f520006003a0091027800ae
:1033900068825200840878005403be004402be00d4
:1033a000060037001182e9008408780014027800d2
:1033b000cfa2de000503780086037800049cbe00df
:1033c0000694be002860900081c6b300814f500073
:1033d0000e00320021c6b300814f500005003a00b4
:1033e0000402fb00cfa2de0005037800860378000c
:1033f0000900370041c7b300814f5000030032007d
:10340000e6c04000814f500005003a00cfa2de0028
:103410000503780086037800049cbe000694be0075
:103420003800be002801be0078029000d5c2b3006b
:10343000e00f5000e08f5800e00f5900e08f590076
:10344000080035008812900062836200020032009a
:10345000b5c2b30003003700e182620050003200c1
:1034600005c2b30005757a004b0037002862900052
:10347000c5c6b300854f520007003a00110278001c
:1034800064005200800878001002be000003eb00c8
:10349000860378001200370015c7b300854f52002d
:1034a00003003200a5c6b300854f520006003a0063
:1034b0009102780068825200840878005403be00ac
:1034c0004402be00060037001182e900840878003b
:1034d00014027800050020000600200007002000ec
:1034e000049cbe000694be002860900081c6b30014
:1034f000814f50000e00320021c6b300814f5000b2
:1035000005003a000482fb000500200006002000b0
:10351000070020000900370041c7b300814f500069
:1035200003003200e6c04000814f500005003a0021
:10353000050020000600200007002000049cbe00bb
:103540000694be0008129000680262001400320067
:103550003802be002803be00e00f5200e08f5a0080
:10356000e00f5b00e08f5b000d00320084c7b3000a
:1035700084cf54000300320084c5b30084cf5400cc
:1035800007003a007802900005c3b30005757a0081
:103590000402e80009757a000402e8007404980047
:1035a00078029000040545006a049800894078007c
:1035b00069003700a8629000c4c4b30084cf5200f1
:1035c00006003a0091027800688252008408780070
:1035d0003400be002401be000500370091027800cf
:1035e00064825200840878001400be00a409070019
:1035f000009cbe000294be00b802900078029000c9
:10360000e08f520002003d00d5c2b3000800370031
:10361000881290006283620002003200b5c2b300db
:1036200003003700e18262000400320005c2b300eb
:1036300005757a000402e80074049800780290008e
:10364000040545006a049800894078000800780065
:103650002401070062003700a8629000c6c6b300cc
:103660001182e90086cf5200230032000a003c009c
:103670006443530086cf52002600320006c3e800a0
:1036800086cf5200130032006843530086cf5200a9
:103690001f003a000a00370046c7b30086cf520029
:1036a0001c0032006643430086cf520019003200ee
:1036b0006943530086cf520015003a0005003700d9
:1036c0008408780014027800485c9000084a78006a
:1036d00043003700840878001402780068089000de
:1036e000cf80de000101780082017800009abe00e0
:1036f0000292be003a003700840878001402780075
:10370000680b9000cfb3de00068abe00340037009d
:103710001182e9008408780014027800680c900097
:10372000080a78002e0037001182e900840878002a
:1037300014027800cfa2de0005037800860378002b
:10374000049cbe000694be0078029000040545006b
:103750006a04980081c7b3000800780009030700d5
:103760001f0037001182e9008408780014057800f2
:103770006a049800d80c9000e08f540004003d00cb
:103780000a007800cefd07008004780007003700ab
:10379000090178008000eb000a007800780007003b
:1037a000e00f5000010032008a045000190c98000c
:1037b0000b0037007802900009757a000600370088
:1037c0007802900004054500e0cf540001003a0063
:1037d00059c2b300094d78000402e800740498004f
:1037e0000000eb004f0578004f04be00000006000b
:1037f000881f78000002eb006103b800060478001f
:10380000030037000402e800e0cf52000600320057
:103810006121b80006004100e842790081cf5200e2
:10382000f8ff3a00010037000000eb004f04780079
:10383000000006000108780000000600889fbe0016
:103840008a9fbe008c9fbe008e1f78000006780005
:103850000104780002007800830478000882b9002f
:1038600004077800e00f52003f003200e00f5400e0
:103870003e00320084057800c90290006902900081
:10388000848f520004003900090078004e000700c0
:10389000e00f500026003500044020009906620029
:1038a0000a0032000b017800a10020000c00780013
:1038b0003300070080067800e08f560003003200d6
:1038c000610516000a854600010037000b057800e7
:1038d0004900900069029000000252008a0f5200d5
:1038e00002003100040578008006eb000a01780030
:1038f0008c0078002d0007008a8555004902900051
:103900000a024200c4049800e08f5600040032000e
:1039100009007800f9040700e00f500004003a00a5
:10392000e08f5500020032000a064600d2ff370041
:1039300004802000190262000200320009007800b1
:10394000ee04070004c020001902620002003200e9
:1039500049029000e40498008b055700110009000b
:103960008885d80001003700040078004f077800f0
:103970004f06be004f05be004f04be00000006000b
:1039800003003700b0cf1000060032000201e9004a
:1039900000027800e00f5100faff3a0002007800c0
:1039a0000000060004007800000006000002780015
:1039b00002003700315a78000201e900e00f51009f
:1039c000fcff3a0000000600889fbe008a1f7800b6
:1039d00000047800c8029000680290000000eb002c
:1039e000848f52003c00390018027800260029001c
:1039f00006036200e20f5300070032000520240096
:103a0000800f520001003d0005202000048c720050
:103a10000080eb003000370006002600060262003e
:103a2000860f520009003a0038029000848f52003d
:103a30000600390008007800b00407000002780092
:103a40000080eb00e00f520023003a0018057800d8
:103a500004c020000402650018003a00a804900089
:103a60006402200008024200848f540013003a00d0
:103a7000002020003006070020049800e00f5000ce
:103a800005003a0029049800490498008904e800d8
:103a900039049800080037000a60a0000a0c78007a
:103aa00040049800042020000002420034049800e2
:103ab000400c9800500c98002d040700280290003c
:103ac0005404980038029000640498000400260012
:103ad000180c72000000eb004f0578004f04be0088
:103ae00000000600cf04b000889fbe008a9fbe0081
:103af0008c9fbe008e1f78008006780001467800fb
:103b00003d02be002d03be00d4979f00e5979f00a5
:103b1000f6979f00879f9f0014c6b300844f5600fe
:103b20001200320014c4b300844f56000f0032005c
:103b30005d0a9000e00f520002003d00640020008a
:103b400009003700e00f520008003a0074c6b300c5
:103b5000844f56000300320074c4b300844f5600f3
:103b600002003a0014002000d40e98008d00780066
:103b700080fa2f000f004000d8010700e20f50002c
:103b80000f003a0034002000940e980084062100b3
:103b900015c6b300854f560019003200e4c242003a
:103ba000854f560016003200c40621008542e80009
:103bb000854f560012003a0084062100100037009d
:103bc000e00f50001400340034002000940e9800e0
:103bd0000407210015c6b300854f560008003200c7
:103be000e4c24200854f5600050032004407210020
:103bf0008542e800854f560001003a000407210085
:103c0000ed029000b44a7800b46a7800144278005b
:103c100094429800ab01370014c6b300844f56009d
:103c20000300320014c4b300844f56000e003a0063
:103c30006d02900005c3b300055a7800e4069800b1
:103c400085c5b30016c6b300864f560001003a0082
:103c500085c7b300055a7800e40698007d029000fd
:103c60000482e800f4069800e00f500005003a00d6
:103c7000c0979f008001780022fb2f000f014100b8
:103c80008c01370014c6b300844f56000600320082
:103c900014c4b300844f56009b003a0095082100dd
:103ca000d5b79f000200370086072100d6b79f00d6
:103cb0005d0a90001b022000e00f52000100350059
:103cc0008405e8000b05e8006022b8006033b80006
:103cd0005f909700ef9097007f9197008f999700e2
:103ce0003e0707003d02be002d03be00e00f50005e
:103cf00001003d0007f0a200d4979f00e5979f00c8
:103d0000f6979f00879f9f00cf939700e48353000f
:103d1000c7979f000042eb00a4779f003efb2f0057
:103d20000f07470033003700c201200003002000c6
:103d3000a0fa2f000f0040009f0407005f92970039
:103d4000ef9297007f9397008f9b970094b79f0007
:103d5000a5b79f00b6b79f00c7b79f000400be007d
:103d60000601be00e50707000004be006705550018
:103d70004240a9000c0034000c0807000002be00fd
:103d80000203be001fb09700afb097003fb197008d
:103d9000cfb197007d080700d0979f00e1979f0063
:103da000f2979f00839f9f006707470074002000e1
:103db000050037006f676400cc4add004444de0034
:103dc00008847200c4ccde00e00f5400e08f5c0079
:103dd000050034000402e900e10f4200f5ff3a005b
:103de000010037000067eb000402e900fdff3b0023
:103df00067074700e00f5500090034006022b80053
:103e00006033b8005f909700ef9097007f91970024
:103e10008f999700f6060700e00f5000c2ff3c00a4
:103e200032fb2f000f014100020757008e0178007e
:103e30008b0f5700010034008b017800e08f510098
:103e40002b0035000042eb008e8f51000a003d0030
:103e500086fa2f000f03430003024300b44a900088
:103e6000f4c0b300e7cf520003003c000042eb0077
:103e700001003700850178008302e90037fb2f003d
:103e80008f834300058343009643780084cf53001b
:103e9000f8ff3200ef4f520001003a00074be800f4
:103ea000e08f520007003d008301e8004f9097002b
:103eb00064004000c0979f0022fb2f000f014100cb
:103ec0000200370032fb2f000f014100030278008f
:103ed00005003700e2427a008502fb005fb39700dd
:103ee000e6c27a0005717a000402e900f9ff3b009e
:103ef0005d0a9000e00f5200ee003d000302e90071
:103f0000d40e9800eb0037005f949700ef94970071
:103f10007f9597008f9d97006022b8006033b800ae
:103f20000800be000a01be00ac060700e00f50000a
:103f300005003d000bf0a200d8979f00e9979f0075
:103f4000fa979f008b9f9f00745927004f9097000e
:103f50000480b900026a2800130020008df70700d2
:103f600064045000c8979f0015003b0063041400d0
:103f7000c4ff2f00040464008803ea00c7979f0071
:103f80005f909700ef9097007f9197008f9997002f
:103f90000a022100070037006102640003003200ba
:103fa0003a02be002a03be00830707000884d1003e
:103fb00068054500e00f5400f7ff3c001a00370089
:103fc000e00f54001c003200c4ff2f000404640002
:103fd000c8979f000a0221006000b800020020007c
:103fe00003ff230007003700610264000300320072
:103ff0003a02be002a03be006f0707000884d10002
:1040000068054500e00f5400f7ff3c000002be00c9
:104010000203be005f909700ef9097007f9197009a
:104020008f99970077060700d0979f00e1979f0030
:10403000f2979f00839f9f005d0f900064c6b300be
:10404000844f5600040032006400200065c4b300b1
:10405000854f560002003a004f9097006a024000d8
:104060000e074200f30f5700010034003e0120000c
:1040700004c3b300a4779f003bfb2f008f8545004e
:10408000350037005fb09700efb097007fb1970021
:104090008fb99700190707000004be006807570092
:1040a0004240a90010003400400707000002be0093
:1040b0000203be005fb09700efb097007fb197009a
:1040c0008fb99700b10707006022b80046782d002d
:1040d0007719240038070700d0979f00e1979f00c9
:1040e000f2979f00839f9f00e88545008a0020008b
:1040f0000801be000c003700a400200005002000cd
:10410000a0fd2f000f0040003b0307005faa9700af
:10411000efaa97007fab97008fb3970000c3b3005f
:10412000806543000401be00e00f5100e08f59009c
:10413000060034000a05e900e10f4500eeff3a00f1
:104140000200370004c3b300846578000a05e90063
:10415000fcff3b00e8854500e00f570011003400ec
:104160005f929700ef9297007f9397008f9b970045
:10417000d4b79f00e5b79f00f6b79f0087bf9f00a9
:104180006022b8006033b8005fb09700efb09700ce
:104190007fb197008fb9970015060700e00f500018
:1041a000b8ff3c0035fb2f008f824200858555000b
:1041b0004f93970067024300c4979f0006c3b30064
:1041c000020037008b05e9000402e90005017800d0
:1041d00082027800b54f1300faff3200c4979f00a7
:1041e000dd09900065c6b300854f5600030032001c
:1041f00065c4b300854f560002003a000402e8008f
:10420000090037001400200055c6b300854f560042
:10421000050032000c42780054c4b2000482fb0056
:104220000402e9004f22de00830142008b8f51001f
:10423000010034008b017800e08f51001d00350033
:1042400004c3b3008b8f510006003d0062c37900a8
:104250006942420045c3b300854f530001003c0052
:10426000694252008302e9008502410001003700e3
:10427000860178000303e90005007800a543780073
:1042800084cf5300faff320095c3b300854f52002c
:1042900001003a000748e800e00f530005003d0028
:1042a0000201e9008301e800cf9397008703e8004b
:1042b000c7979f004f9297008c4078000d007800c0
:1042c000470407004f0778004f06be004f05be00a9
:1042d0004f04be00cf04b10000000600889fbe005e
:1042e00000047800e68440001900d0004500de009c
:1042f000f47f2000840f500010003a00000ceb0007
:10430000990478006f826400200020001b003a00ae
:1043100021029000e00f520018003a0011029000b4
:10432000e00f520015003a0010002000910f12001b
:10433000120032002000200010003700e00f500073
:1043400004003a0001007800cc020700e00f5000a2
:1043500008003c00f50028009982620004fe23005a
:10436000848c720024c02f00040c40000080eb00fd
:1043700002003700000ceb000000eb004f04be0011
:10438000000006004f02b000889fbe008a9fbe005a
:104390008c9fbe008e1f78000006780084c5b30095
:1043a00084cf50000a0032007742420084cf500090
:1043b0000a0032006942420084cf50000b003200f4
:1043c000b00a210080bf9f00ae0020000a00370025
:1043d000a409210084bf9f0006003700b50a210010
:1043e00085bf9f008e00200003003700b60a210021
:1043f00086bf9f000e0120003c02be002c03be00c1
:104400000605be000404be0040c6b30080cf5000c5
:10441000030032006540400080cf50000b003a009e
:10442000e00f5200e08f5a00e00f5b00e08f5b006e
:1044300006003d006044b8006055b8000404540014
:1044400085845c0006055d0087855d00e80f5700e8
:104450000400320044002000f00f570038003a00fa
:104460000100370034002000e00f5400e08f5c00b2
:10447000e00f5d00e08f5d0004003a00dc0a900070
:104480008d012000e08f5200060032008e02e9000c
:10449000888262008fbb9700e7c27a00f5e79f0031
:1044a0007d012000040078000000e90005003300d1
:1044b0008b05d1000a85d3008984d3000884d300fa
:1044c000f9ff3700089ebe000a96be008e02e90082
:1044d000110037008d06e900008362008fbb970052
:1044e00067447b0007fd2f008f83430088f37e0025
:1044f000040378000603e900050033008381d1003e
:104500000281d3008180d3000080d300f9ff3700ff
:10451000009ebe000296be003c00be002c01be0004
:10452000e00f5000e08f5800e00f5900e08f590075
:1045300099003400e08f5600e6ff3c0096003700fb
:104540002c62900085c6b300854f52000b003200ec
:1045500006003c00e04f520008003200e6c2520064
:10456000854f520052003a0004003700c5c6b30020
:10457000854f52004e003a0024003700e00f5400ef
:1045800004003a005c0a90008d012000e00f520008
:1045900006003200110009000e84d8008fbb97007e
:1045a000e7c07800f1e79f007d01200011000900bd
:1045b0000e84d8000a003700110009000e04d8004c
:1045c0008d06e9000e82b900040454000fba97006a
:1045d000e4427c0004fd2f000f02420005f27e0041
:1045e00000047800e00f540002003200e08f560013
:1045f000f1ff3c00cfc4de00090578008a05780091
:10460000089ebe000a96be0063003700e00f54000b
:10461000e08f5c0004003a005c0a90008d012000ed
:10462000e00f5200070032006171b9000800be00bf
:10463000580607000fbb970066437800f6e79f0017
:104640007d0120006175b9000a01be000800be00ae
:104650008af707000b0037000a01be000800be0001
:10466000ccf507008d06e90000f2b90004045400ff
:104670008fbb970067427c0007fd2f008f834300ac
:1046800084f37e000004be00e00f5000e08f58006d
:1046900002003200e08f5600efff3c00088ebe00a3
:1046a0004fcade0024069800340698003a0037000e
:1046b000e00f5400e08f5c00e00f5d00e08f5d00d4
:1046c00004003a005c0a90008d012000e00f5200c7
:1046d0000b0032000e027800cfa2de000503780046
:1046e000860378000800be000a01be0025f8070016
:1046f0008fba9700e5427800f5e79f007d01200022
:104700000e027800cfa2de00050378008603780051
:10471000c4b79f00d5b79f00e6b79f00f7b79f00cb
:104720000800be000a01be000ff807000f003700a6
:104730004fb29700dfb297006fb39700ffb39700b7
:104740000800be000a01be0012f807008d06e9004d
:1047500000f2b900040454008fba970065437c004e
:1047600005fd2f008f82420086f27e00009ebe0073
:104770000296be003c04be002c05be00e00f5400b3
:10478000e08f5c00e00f5d00e08f5d000200340010
:10479000e08f5600e6ff3c00e80f570010003a009b
:1047a0000c129000680262000d003200f78f560074
:1047b00006003e0007fd2f008f834300e7c27e0006
:1047c00004c3b30084cf5200050032008d06e90017
:1047d00000c3b30008fd2f000f04440000f47e0066
:1047e00078811600120e98006c00900004fd2f00d6
:1047f0000f0242008d0042006cfc07001c0a900072
:10480000dc0a9000850f520006003d000482520031
:10481000040e98000c1290000440a10004169800a9
:104820000f003700e08f52000d003d008c12900009
:10483000f4826200f08f520009003a007c0b900075
:10484000fc029000850253000c0b900086825200ff
:10485000048252004240a90001003400040e980076
:104860004f0778004f06be004f05be004f04be0044
:104870004f02b100000006000400fa00889fbe004d
:104880008a9fbe008c1f7800000478000106780023
:10489000f80d90007802900084855500080a900079
:1048a00084855500180a900084855500280a9000d8
:1048b00084855500380a900084855500480a900088
:1048c000848555000402220094bf9f000403230046
:1048d000a4bf9f00081290006402620015003a0015
:1048e000e08f5500130034000b0578008a0478002f
:1048f000e20f550001003600290020004802900018
:1049000009017800ee805700580090000400010073
:1049100050049800e00f50008c003200680a9000ac
:1049200009024200640c9800090555004240a900a4
:10493000eeff3c0078019000e00f51000c003400c5
:10494000480290008c00780058009000040001009c
:10495000500498000082eb00e00f50007c00320011
:10496000e80a90007802900004824200640c9800eb
:10497000880c9000e08f5400110034000905780085
:10498000e28f5400010036002a0020004802900007
:104990000a017800ec8057005800900004000100e4
:1049a00050049800e00f500068003200680a900040
:1049b0000a024200640c98008a845400edff37001c
:1049c00018099000e00f51000c00340048029000dc
:1049d000e800900058009000040001005004980086
:1049e0000082eb00e00f500059003200e80a90000e
:1049f000180a900004824200640c9800a80c9000f1
:104a0000e08f54001100340009057800e28f540053
:104a1000010036002a002000480290000a017800b8
:104a2000ec805700580090000400010050049800ea
:104a3000e00f500045003200680a90000a02420070
:104a4000640c98008a845400edff37003809900008
:104a5000e00f51000e003400e8009000180a9000aa
:104a6000848040004802900058009000040001003b
:104a7000500498000082eb00e00f50003400320038
:104a8000e80a9000380a900004824200640c980002
:104a9000c80c9000e08f5400110034000905780024
:104aa000e28f5400010036002a00200048029000e6
:104ab0000a017800ec8057005800900004000100c3
:104ac00050049800e00f500020003200680a900067
:104ad0000a024200640c98008a845400edff3700fb
:104ae0000812900064026200190032000002eb001c
:104af000848f5500160034008b0478000905780077
:104b0000e28f5400010036002a0020004802900085
:104b10000a017800ee805700580090000400010060
:104b200050049800e00f500008003200680a90001e
:104b30000a024200640c98008a8454004240a90092
:104b4000eeff3c000002eb00010037000082eb00aa
:104b5000040078004f0678004f05be004f04be00e9
:104b60000080fa0000000600e0652200b700370070
:104b7000881f7800a8ff27000042eb00984f120022
:104b800003003a00f8ff070024c0b300044c78008b
:104b90004f04780000000600889fbe0000047800e3
:104ba0000800780055000700800478000404200005
:104bb0001802620002003200280090007a0107000b
:104bc0000002eb002404980038409000e04f5000b1
:104bd000050035000000fb004a030700e00f50000d
:104be000010032008084eb0018109000e00f5000ac
:104bf000080032004e030700e00f500001003200b1
:104c00008084eb0018109000670107000002eb00a1
:104c100014149800040820001802620016003200e4
:104c20000003eb006022b800070121000600d0005d
:104c300060807b00880f500006003a0004024200aa
:104c400085824a000601210004024300000aeb00ad
:104c50000600370061024200e0824a000603e800d5
:104c6000e80f5200e08f5a00f0ff3a000800780089
:104c70004d0107000e003700040c780000c2eb0065
:104c80003444980064022000080242002404980082
:104c90004404980054049800440c9800640498005c
:104ca000540c98007404980076024400040c980098
:104cb000090078004f04be0000000600889fbe0077
:104cc0000004eb00e90121006140b800e2ff2f0081
:104cd000f3ff2f00b204070069007800e00f5000d6
:104ce00001003200acff07000804e800e80f5400a0
:104cf000f5ff3a004f04be0000000600889fbe008a
:104d00008a1f780000047800e00f54000e003a007b
:104d1000880478000a0121000902d00064007d00a7
:104d2000e00f500004003200f4ff0700e00f5000d5
:104d300001003d000084eb008904e800e88f540086
:104d4000f5ff3a0028003700040022001802620034
:104d500024003200a80490000f0037000901510020
:104d6000384090000000fb0089007800a4ee0700a6
:104d7000e00f500007003c00280290004404980017
:104d800064049800540c98001890a0000084eb0074
:104d9000150037008084440048019000828f540041
:104da000eeff390028029000440498009802780031
:104db00006c020000683620001003a00380290001d
:104dc000060024008682620003003200640498001a
:104dd0000004eb0004003700540c98000504780030
:104de0000100370004047800080078004f057800bf
:104df0004f04be0000000600881f78008a9fbe0096
:104e00008c9fbe00000478000205be000406be00b0
:104e10000401be000a00be00def30700008cbe00e5
:104e20000c01be005e0407000005550081855d0091
:104e30002a0498003b049800080078004f06be0042
:104e40004f05be004f04780000000600040020005b
:104e5000e00f52000800320004008000e00f520012
:104e6000050032000402e900040088000402d000ba
:104e70000500800080327a000000060066024000d3
:104e8000940278000200280002816200ef82620032
:104e9000050a7800020032001500200010003700db
:104ea0002003900015002000e00f53000c003a0092
:104eb00010039000e00f530009003a00900f130018
:104ec00007003a0039003700170a7800960b78007f
:104ed000100b780001087800f082520002003700c1
:104ee000e40340000083e80094007800e08f500065
:104ef000f5ff32001200370097017800cf19de006d
:104f000081804000018a710096017800cf19de008f
:104f10009700780081804000818b710096007800b6
:104f20008180400090017800cf19de00038b700073
:104f300090007800018840008502e90002003700f7
:104f4000e40340000083e80094007800ef8f5000f5
:104f5000e9ff36000f00370097017800cf19dd0018
:104f60009000d1000188710096017800cf19dd0012
:104f70009700d100818b710094017800cf19dd007a
:104f80009600d100018b7100140ad1008502e8005f
:104f9000020037008083e80064034000940078003a
:104fa000ff8f5000ecff3e006f8a6000140a710012
:104fb00005007800000006000400fa00889fbe008b
:104fc00000047800e6044400990278000502d0004d
:104fd0004522de00f67f2000860f52000e003a00c8
:104fe000ef826200200020006c003a00280290004e
:104ff000e00f520069003a0018029000e00f5200e2
:1050000066003a0010002000980f12006300320082
:105010002000200061003700e00f52000a003a0033
:1050200008007800c2bf9f00d3bf9f0093ff070016
:10503000000278000000eb004fb99700dfb997003d
:10504000800f520055003c00cfa2de000401410059
:1050500085814900e47f2000840f5100e08f5900d2
:105060000e0034000002eb00990f120004003d0016
:105070006022b8000600200007ff2f000300370061
:105080006022b8000600200007ff2700049cbe0035
:105090000694be001000200040003700e00f5100d1
:1050a000e08f5900050034004411dd00f4002800b1
:1050b00019026200840c7100370037001902780071
:1050c00007002800870362006f0262000440a0000e
:1050d000840c7800d4fc2f00f5ff2f00840f5100c2
:1050e000858f590006003d00870c78000000eb001a
:1050f0002004980010049800000c78002700370066
:105100006f0141000883e800e40244000400370016
:10511000160c7800150b7800990a7800800ceb00cb
:10512000700251007001410000fe2f00020040009b
:10513000ef0f4000f6ff35000402ea0015003200d0
:105140008802780070031200d50078008608dd0020
:10515000180078000400de00008c70006404440035
:10516000980078008608dd00150078000400de0055
:10517000808a700099027800062bdd009802780082
:10518000842ade00050c730099027800042ade00f0
:10519000840c7800998c73000080eb004f04be00f3
:1051a0000080fa0000000600e00f50002f003200df
:1051b00040037800e30f53002c00360061026300c7
:1051c0002a003a00b4ff8300e00f520002003200d0
:1051d000840f50000400310014009800b0ff8b00d1
:1051e000160037000502780094029000e08f52000c
:1051f00002003200808f5200faff390094037800d9
:1052000087004200810f500018003900808f500045
:1052100003003a00068a43000400780007003700c4
:10522000e08f52000300320006034000868f5200d8
:105230000e0039001500980010029800100290002e
:10524000e00f52000900320090024000850f52002a
:1052500006003a0045ff2700800aeb009002780024
:105260001488420014029000140098000000060008
:10527000889fbe0000047800a4ff8300e00f520066
:1052800002003200040078000d003700b4ff8300f4
:1052900060ff270004003700940f540024003600fc
:1052a0000480e80014029000e00f5200faff3a0078
:1052b00010003700950f54001d0036000580e800ef
:1052c00090027800e08f5200faff3a0094027800d2
:1052d000b4ff830060ff270004003700940f5400e0
:1052e000130036000480e80014029000850f52007d
:1052f000faff3a00c9ff8300888f54000100310093
:10530000880478000900780068010700e00f500069
:1053100004003a00888f5400050032008904d1004f
:10532000f5ff3700091878009fff0700d2ff37000c
:105330004f04be0000000600881f780000027800bd
:10534000630442000800a1000000eb00840f540039
:1053500021003600e30f540001003e004800200009
:1053600008007800c2ff0700e00f50001a0032006a
:105370001002780014037800e4025300888f520072
:105380000300310094029000050878000700370000
:1053900088024200050878001403900096029800e5
:1053a00090027800940a1400080a780090027800ad
:1053b000e08f52000600320015039000e00f53000a
:1053c000020032008582e800010037008602780082
:1053d000a5ff8b000480e8004f0478000000060061
:1053e000f0874700889fbe008a9fbe008c9fbe004a
:1053f0008e1f780000047800814478000205be000a
:1054000004067800e08f550002003c001b002000dd
:10541000caff270064c6b30084cf54000e003200d8
:1054200064c4b30084cf54000b00320074c6b300d0
:1054300084cf54000300320074c4b30084cf5400fe
:1054400099003a00e40f46007f003500580a9000aa
:10545000840f56007c003d000c06e80064c6b300d3
:1054600084cf54001000320064c4b30084cf5400d1
:105470000d003200081290006802620004003a0039
:10548000580a9000848f550001003d005b0c980085
:10549000580a90000c025200540c980002003b0085
:1054a0000002eb00540c980018089000680290006d
:1054b000e00f560026003c0005c3b30005727800db
:1054c0000000e800100c9800580a9000e00f52000d
:1054d00003003c00081290006802620005003200e0
:1054e00068029000e5c2b300057278000000e80091
:1054f000100c9800580a90008c02ea00850f5200a8
:1055000001003d000406ea008c02ea00250c980028
:10551000040646005c0c98008b0f56000100340016
:105520000b0678003c0c980068009000180a900068
:10553000040040000c0178008a0078001bf9070085
:10554000580a90000c0652004c0c9800bf0037001f
:105550008c8f550018003d00000042000b017800c0
:105560008a00780011f90700180a900004824500ab
:10557000140c98008b0556002b0c9800d80a90004c
:10558000e08f520003003c0088129000e882620025
:1055900006003200e8029000e6c2b30086727a008c
:1055a000380a90000402e800340c9800580a900071
:1055b000440c9800a5003700000042000c01780060
:1055c0008a007800f9f80700180a900004024600e3
:1055d000140c98008c855500d80a9000e08f52007a
:1055e00003003c0088129000e8826200050032004f
:1055f000e8029000e6c2b30086727a000402e80076
:10560000140c9800580a9000848f55000100340053
:105610008405780068009000180a9000040040009b
:105620008c0045000b017800e0f80700180a900094
:105630000b024200140c9800580a90008b0552008f
:105640002b0c98008100370074c6b30084cf54003f
:105650000300320074c4b30084cf540012003a0037
:10566000580a9000848f550004003d0008129000f5
:105670006802620001003a005b0c9800580a900032
:105680000402e900540c980002003b000002eb0009
:10569000540c980074c6b30084cf540009003a003b
:1056a00059c6b3000c00370014c6b30084cf5400b1
:1056b0000600320014c4b30084cf540006003a0040
:1056c0000400370059c4b3000300370009c7b30012
:1056d0000100370009c5b300180a9000e8029000e5
:1056e0001a43780086727a000402e800140c9800cd
:1056f000d80a9000e08f520003003c00881290000e
:10570000e882620005003200e8029000e6c2b300c1
:1057100086727a000402e800140c9800580a90007f
:10572000e00f5200100034008b05e900848f550013
:10573000010034008405780068009000180a900089
:10574000040040008a00e8000b01780097f8070089
:10575000180a90000b024200140c9800580a90009e
:105760008b0552002b0c9800e8029000180a90005c
:1057700004824200095a78000405e800e00f560050
:1057800004003500b5c2b300054a78008a067800e7
:1057900004003700d5c2b300054a78008a067800b5
:1057a0000c06ea00fd8557000007eb0009003700f2
:1057b000a20020008c00780072805700450007008e
:1057c0007fb297008fba9700856d78000406780045
:1057d0000e07e800e00f5600f5ff3c00e10f570010
:1057e00013003c0054c6b30084cf540003003200c1
:1057f00054c4b30084cf540003003a008a067800f2
:1058000004c3b300845e7800e00f570008003a003c
:1058100004c3b300845e7800050037000e07e9007a
:10582000fc82570065427f0006c3b300865e4200db
:10583000e00f5700f9ff3c00e8029000180a9000c2
:1058400004824200848656003d0c980008129000a5
:1058500074026200f00f52000e003a00980a9000a5
:105860007802900004824200a80a900005024200db
:10587000b80a900005024200c80a900005024200e2
:10588000f80a9000850f520002003d000482520089
:10589000040c98004f0778004f06be004f05be006d
:1058a0004f04be000f01b1000000060000027800a6
:1058b0000000eb00800f5200050034000400780067
:1058c00024000700e10f400001003a000000eb0057
:1058d000000006000003be00110009008203d8008a
:1058e00000027800040b780002a1b9000281530085
:1058f00012039800060078000000060000c0da00dd
:10590000000006000a00fa0014002000b4bf9f0047
:10591000c0bf9f006a805700f8ff07004fb897008c
:105920000080fa000000060000c0da000000060057
:105930000a00fa0054002000b4bf9f00c0bf9f00bf
:105940006a805700f8ff07005fb897000080fa00f0
:1059500000000600889fbe0080047800f0ff8300ee
:10596000e00f500004003a000e0007000084eb0036
:10597000e00f500008003500f8ff8300e08f54006e
:10598000050032000900440006000700e00f500047
:1059900001003d000084eb00080078004f04be00c9
:1059a00000000600e00f500004003a00640d2100e2
:1059b000f4ff8b0000027800060037000082eb0045
:1059c000654d2100850f500002003e00f0ff8b0066
:1059d0000002eb0004007800000006008f1fd100d9
:1059e000f20107008f87e9000000e00000000600d8
:1059f000809feb00ed0107008f87e9000000e000c9
:105a0000000006002800fa00889fbe008a9fbe00a2
:105a10008c9fbe0003866b00800007006400e100dd
:105a2000440032006408e1004a0032006100e100f5
:105a3000460032006108e10049003200ec064700f0
:105a40006000b8003d02be003d03be00f486570072
:105a50006011b8003d04be003d05be007d0320007e
:105a60000b0037000000a0008d06e9001300320093
:105a70000402420085824a0006034b0087834b00e4
:105a800000004000818048000201490083814900f4
:105a90000802520089825a000a035b008b835b0074
:105aa000f0ff3b000802420089824a000a034b00d3
:105ab0008b834b008d06e900edff3a008482720073
:105ac00086827200f707b2008782720001003200fe
:105ad000150020001e0490003e0b900006035400a9
:105ae000e63fb0000368a300070032000000a700f3
:105af0000500a0008301d1000281d3008180d30082
:105b00000080d3000603e8008301d1000281d300a6
:105b10008180d3000080d3000002eb000482d20019
:105b20001200070003f0a1000cf0a70003f0a00092
:105b30004e003700640247006408e100480032006c
:105b40003400be003401be00f6ff37006108e100fa
:105b5000430032006011b8006000b800f1ff370068
:105b600003ff270002002000fbff37001800200081
:105b700057002000080453000d003d0006002000df
:105b800097fc2f000740e1001e0034008482720061
:105b9000610260008301d1000281d3008180d300c3
:105ba0000080d3000804e800f8ff3a004700200016
:105bb0006104600005047400040464000d003200f8
:105bc00061004000e080480060014900e081490038
:105bd00003b8a500070032000603e8006538e100bd
:105be00004003a008301d1000281d3008180d300f8
:105bf0000080d300f87f20000830e100030035006a
:105c0000080378006000b8006011b8004433dd007c
:105c1000f300b2008301730000000600680447002f
:105c20000294be000094be00fc0447008694be00af
:105c30008494be0009007800a501070008007800e0
:105c4000a301070099007800814f70000b003b0012
:105c50000800be007e0107004f00b10003003700be
:105c6000f3ff2700f2ff2f006110b9004f06be00be
:105c70004f05be004f04be000080fa000000060081
:105c800081037800b9f007000001be006000b80091
:105c90000478a30013003a006220e10015003e00e2
:105ca0000d0039008301d1000281d3008180d3002f
:105cb0008301d1000281d3008180d3008301d10010
:105cc0000281d3008180d3000538b000c42add00f2
:105cd000f300b2008381720007f0a70003f0a00078
:105ce00000000600f3ff2700f2ff2f006110b9004b
:105cf000fbff370003ff2700f7ff37001400fa000f
:105d0000889fbe008a9fbe008c9fbe000004be001c
:105d10000205be00680047000a90be000890be0061
:105d20006b0107000070a7000bf0a10030432000ba
:105d30009e02900080825200b0fe2f000028e100f9
:105d400011003d00b0fc2f000028e10015003400d8
:105d50001e0990008e0890007e0090000501b000a2
:105d60000201d1008180d3000080d3008502e800c9
:105d7000fbff3a000b00e000bcff3b00600010009e
:105d8000e0801800b9ff3700f0ff2f00f1ff270077
:105d90000b00e000b5ff3b000100280000002000e0
:105da000b2ff37006000b800b0ff37004f89de0057
:105db000820178006d0137002800fa00889fbe003c
:105dc0008a9fbe008c9fbe0003866b0093ff070076
:105dd0000028a30064003a000128a30067003a00ed
:105de0000008a30062003a000108a30065003a0021
:105df0001e009000be08900081064000ed3fb100fb
:105e0000f4805700ee019000111ab8008e0990003e
:105e1000311bb8009e099000311cb800511db8001c
:105e2000f485570046000700fe0190003a00070085
:105e30008b85e8003e0007008e09900040000700b7
:105e4000ee019000340007008b85e8003800070061
:105e50008e099000400007009e0990001b18b800b2
:105e6000890440000a854800fe01900034000700c4
:105e70008b85e80038000700ee0190003000070035
:105e80008e0990001b18b800890440000a8548005c
:105e90000a98a30008003a000402420085824a00e2
:105ea00006034b0087834b0008044c0089844c0098
:105eb0000a054d008d06e900848272008502730098
:105ec0004c3add008502720001003200150020000e
